:020000040000FA
:060000000A128A110C280F
:10000800FE00030EF6000A08F7000A128A11F72804
:100018000A128A110F28F801F901FA01FB0183126B
:100028000313AB01AC0183010A128A116E28582808
:10003800240884008317251C831322088000840A5F
:10004800230880002008A800A80DA80D1F0828066E
:10005800C33928069F000F3083120313A800A80B8A
:1000680033283628831203139F146D28260884002A
:100078008317271C831322088000840A2308800022
:100088002008A800A80DA80D1F082806C3392806AF
:100098009F000F3083120313A800A80B512854287F
:1000A800831203139F146D28831203131F0CA800D7
:1000B800280C0F39A900AA012A08003A0319652853
:1000C8006D282908003A03191C28013A03193A280F
:1000D8006D2808000A128A11A7200A128A118312B1
:1000E80003139F14003083120313A000A1002C08EF
:1000F800A3002B08A2000730A4000030A500083098
:10010800A6000030A7000A128A111B200A128A11C1
:10011800013083120313A0000030A1002C08A300B3
:100128002B08A2000730A4000030A5000830A60064
:100138000030A7000A128A111B200A128A11762899
:100148000A128A110C2803308316031788008901C4
:10015800033083160313850087018801890186010E
:10016800831203138501860187018801890183169B
:1001780003130F178F160F120F14543081006430B9
:100188008312031381000030A000A1000A128A1113
:10019800D4200A128A118B170B178B160B11080023
:1001A800831203131F142008A200A20DA20D1F081A
:1001B8002206C33922069F00203083120313A200AF
:1001C800A20BE4280000831203131F083F394038AC
:1001D8009F00831603139F131F129F120C1783127D
:1001E80003130C1308008B13831203130C1FFD2831
:1001F800FE280A290A128A1119210A128A1171087D
:1002080083120313AC007008AB000C130B1D0D29EF
:100218000E291129643081000B118B1777088A0089
:10022800760E8300FE0E7E0E0900831203131E084D
:10023800F200F3017208F4007308F5007508F10084
:060248007408F00008003C
:04400E00D520FF3F7B
:00000001FF
