:020000040000FA
:060000000A128A11122809
:10000800FE00030EF3000408F4000A08F50083124A
:1000180003137F08F6000A128A11E4290A128A11CA
:10002800152883133430FD000230FE005330FF00E2
:10003800203084000A128A116B220A128A110A12CD
:100048008A119A220A128A11F9000A128A119B222D
:100058000A128A11FA003430840044300A128A11D4
:1000680092220A128A11F701F80183010A128A11F1
:100078003D280A128A1129220A128A1183120313AF
:100088008518472848285F283E033F04031D4D284C
:100098004E285F2810140330F9000030FA0086015A
:1000A8008701B801B901C201C301C001C101B6018C
:1000B800B701B401B5010310851803140030031803
:1000C8000130C900CA014908BE004A08BF007A08C1
:1000D800C5007908C4000A128A1117210A128A1168
:1000E8000B290519782879289C283C033D04031D11
:1000F8007E287F289C2840084104031D84288528E1
:100108009C280130B6070318B70A0030B70737082C
:10011800C5003608C4004230C9004908C6000A12A2
:100128008A1183210A128A11831203134408860054
:10013800031005190314003003180130C900CA015F
:100148004908BC004A08BD008519AB28AC28CF284F
:100158003A033B04031DB128B228CF2842084304C0
:10016800031DB728B828CF280130B4070318B50AEB
:100178000030B5073508C5003408C4004030C90050
:100188004908C6000A128A1183210A128A118312A9
:10019800031344088700031085190314003003185B
:1001A8000130C900CA014908BA004A08BB00420325
:1001B8004304031DE028E128F228FF308600B80137
:1001C800B9010130F9000030FA007A08C500790851
:1001D800C4000A128A117A220A128A11831203139E
:1001E80040034104031DF928FA280B29FF30870032
:1001F800B801B9010230F9000030FA007A08C500E8
:100208007908C4000A128A117A220A128A11831202
:1002180003133803390403191229132975284228AE
:100228000A128A1112286D297703780403191D29E7
:100238001E293A2903307706780403192429252929
:100248003A2905307706780403192B292C293A29ED
:100258000730770678040319322933293A290930F7
:1002680077067804031D39293A293C290730890083
:100278000230770678040319422943295E2904309D
:1002880077067804031949294A295E290630770632
:1002980078040319502951295E2908307706780413
:1002A8000319572958295E2977087804031D5D2901
:1002B8005E29822989018229043089008229023035
:1002C80089008229013089000130B8000030B90066
:1002D8008229831203134508003A031974298229D5
:1002E8004408003A03196629013A03196329033AB5
:1002F80003196029013A0319182982290800BC2921
:10030800C401C501E3290130C4000030C500E32958
:100318000230C4000030C500E3290430C4000030B6
:10032800C500E3290830C4000030C500E3291030B7
:10033800C4000030C500E3292030C4000030C500E7
:10034800E3294030C4000030C500E3298030C400F0
:100358000030C500E329460884000130831380007B
:10036800840A003080004808C5004708C400E32913
:10037800831203134508003A0319C329E3294408E3
:10038800003A03198429013A03198729033A031902
:100398008C29013A03199129073A03199629013A38
:1003A80003199B29033A0319A029013A0319A5291E
:1003B8000F3A0319AA29013A0319AF29E3290800BA
:1003C8008B130C1CE829E9291A2A0130F7070318AE
:1003D800F80A0030F8073C308F00B0308E007808FB
:1003E800803AFF0080307F02031DFC290A30770223
:1003F800031CFF29002A082AFF30F9070318FA0A04
:10040800FF30FA07F701F80179087A04031D0D2A6D
:100418000E2A112A8312031310107A08F1007908A2
:10042800F0000A128A1186220A128A118312031313
:100438000C108B177608FF0075088A007408840072
:10044800730E8300FE0E7E0E0900831603178801C3
:1004580089011E30831603138500870188018901ED
:1004680086018312031385018601870188018901AA
:10047800831603130F178F160F120F1410308312E1
:10048800031390003C308F00B0308E008B170B1791
:10049800831603130C14831203130C1008003F3443
:1004A8000034063400345B3400344F34003466348E
:1004B80000346D3400347D340034073400347F3424
:1004C8000034673400347E088A007F0882000A12EC
:1004D8008A1167220A128A118000840A04087D069C
:1004E80003190034FF0A0319FE0A6B2A8312031347
:1004F80005144408C6004607203E840083130008FC
:10050800880008008312031305147008F2007207AC
:10051800203E8400831300088800080064008001DE
:10052800840A0406031900340406932A03340034A9
:04400E00D520FF3F7B
:00000001FF
