:020000040000FA
:060000000A128A110C280F
:10000800FE00030EF1000A08F2000A128A15902F6A
:100018000A128A110F28F701F801F90183136130D8
:1000280084006E300A128A11F0270A128A11A03051
:100038008400B4300A128A11F0270A128A11830147
:100048000A128A11652D831203132D088039B20014
:100058003208B7002D08B2003207B3003308BD00DC
:10006800AC1F3728382839283D143D0803193D2886
:100078003E284D283D0A031D422843284B280030BE
:10008800AD000030AC000030AB000030AA00AC1767
:1000980055280030AD000030AC000030AB00003017
:1000A800AA0031088039B2003208B7063108B20018
:1000B8003207B3003308BC00B01F632864286528E2
:1000C8003C143C08031969286A2879283C0A031D4E
:1000D8006E286F2877280030B1000030B00000305B
:1000E800AF000030AE00B01781280030B1000030FA
:1000F800B0000030AF000030AE003C08031985287E
:1001080086288B283D08031D8A288B2894280030D0
:10011800AD000030AC000030AB000030AA00872BE7
:100128002A08B2003208F30030080A128A15D026CD
:100138000A128A11740883120313C3007308C200D9
:100148004208B200B301B401B5013508BB00340858
:10015800BA003308B9003208B8004308B200B30146
:10016800B401B5013508C1003408C0003308BF0028
:100178003208BE002B08B2003208F3002F080A121A
:100188008A15D0260A128A11740883120313C30031
:100198007308C2004208B200B301B401B5013208C5
:1001A800B807330803110318013E0319DC28B907FF
:1001B800340803110318013E0319E328BA07350868
:1001C80003110318013E0319EA28BB074308B200CC
:1001D800B301B401B5013208BE073308031103188F
:1001E800013E0319F828BF07340803110318013E1C
:1001F8000319FF28C007350803110318013E031926
:100208000629C1072C08B2003208F3002E080A128A
:100218008A15D0260A128A11740883120313C300A0
:100228007308C2004208B200B301B401B501320834
:10023800B807330803110318013E03192429B90725
:10024800340803110318013E03192B29BA0735088E
:1002580003110318013E03193229BB074308B200F2
:10026800B301B401B5013208BE07330803110318FE
:10027800013E03194029BF07340803110318013E42
:1002880003194729C007350803110318013E03194C
:100298004E29C1070830B2000310B80DB90DBA0DC8
:1002A800BB0DB20B50292B08B2003208F3002E0800
:1002B8000A128A15D0260A128A11740883120313A7
:1002C800C3007308C2004208B2004308B300B40177
:1002D800B5013208B807330803110318013E0319A2
:1002E8007629B907340803110318013E03197D293B
:1002F800BA07350803110318013E03198429BB07FF
:100308002A08B2003208F3002F080A128A15D026EC
:100318000A128A11740883120313C3007308C200F7
:100328004208B2004308B300B401B5013208B80767
:10033800330803110318013E0319A329B907340828
:1003480003110318013E0319AA29BA073508031136
:100358000318013E0319B129BB070830B200031086
:10036800B80DB90DBA0DBB0DB20BB3292A08B200EE
:100378003208F3002E080A128A15D0260A128A11AA
:10038800740883120313C3007308C2004208B20042
:100398004308B300B401B5013208B80733080311A4
:1003A8000318013E0319D929B907340803110318A2
:1003B800013E0319E029BA07350803110318013E65
:1003C8000319E729BB072B08B2003208F3003008ED
:1003D8000A128A15D0260A128A1174088312031386
:1003E800C3007308C2004208B2004308B300B40156
:1003F800B5013208BE07330803110318013E03197B
:10040800062ABF07340803110318013E03190D2AF1
:10041800C007350803110318013E0319142AC10740
:100428002C08B2003208F3002F080A128A15D026C9
:100438000A128A11740883120313C3007308C200D6
:100448004208B2004308B300B401B5013208BE0740
:10045800330803110318013E0319332ABF07340870
:1004680003110318013E03193A2AC007350803117E
:100478000318013E0319412AC1072C08B2003208AB
:10048800F30030080A128A15D0260A128A11740855
:1004980083120313C3007308C2004208B200430862
:1004A800B300B401B50108300310B20DB30DB40D9B
:1004B800B50DFF3E031D582A3208BE073308031145
:1004C8000318013E0319692ABF07340803110318EA
:1004D800013E0319702AC007350803110318013EAD
:1004E8000319772AC1073808B2003908B3003A0857
:1004F800B4003B08B50018300310B50CB40CB30CAD
:10050800B20CFF3E031D802A3208BE0733080311D0
:100518000318013E0319912ABF0734080311031871
:10052800013E0319982AC007350803110318013E34
:1005380003199F2AC1070830B2000310B80DB90D7E
:10054800BA0DBB0DB20BA12A3D083C07B200B3019E
:10055800B30D3208823EC20033080318013EFF3E45
:10056800C300D32A0130B2000310BE0DBF0DC00D69
:10057800C10DB20BB82ABB1FC22AC32AC42A3E1413
:100588000130B2000310B80DB90DBA0DBB0DB20B96
:10059800C62AFF30C2070318C30AFF30C307C01FAB
:1005A800D62AD72AB62ABC01BB1FDB2ADC2AF82A9E
:1005B800FF303805B200FF303905B300FF303A0587
:1005C800B4007F303B05B5003508340433043204E9
:1005D8000319EF2AF02AF32ABC01BC0AF82A3E1CA8
:1005E800F62AF72AF82AF02A3C080319FC2AFD2AD9
:1005F8002E2B0130BE07003003180130BF07003032
:1006080003180130C007003003180130C107411C2E
:100618000E2B0F2B2E2B3E08B2003F08B3004008CC
:10062800B4004108B5000130B600350DB50CB40C66
:10063800B30CB20CB60B192B3508C1003408C00036
:100648003308BF003208BE000130C2070318C30ACE
:100658000030C3074308803AFF0080307F02031D43
:10066800372BFF304202031C3A2B3B2B462B7F30A3
:1006780083120313C1008030C0000030BF00003077
:10068800BE007B2B831203134308803AFF0080309F
:100698007F02031D512B013042020318542B552BA6
:1006A800612B003083120313C1000030C0000030FA
:1006B800BF000030BE00B7017B2B83120313420832
:1006C800B2003208BD00FF30BE05FF30BF057F30E5
:1006D800C0050030C1053D1C722B732B742BC0174D
:1006E8003D08B2000310320CB3003308C1003708CC
:1006F800B2003208C1044108AD004008AC003F0810
:10070800AB003E08AA000800831203134B08803987
:10071800CC004C08D5004B08CC004C07CD004D0848
:10072800DC00CA1F982B992B9A2B5C145C080319C0
:100738009E2B9F2BAF2B5C0A031DA32BA42BAC2B4A
:100748000030CB000030CA000030C9000030C800BB
:10075800CA17CB01B72B0030CB000030CA000030DD
:10076800C9000030C80047088039CC004C08D506BD
:100778004708CC004C07CD004D08DD00C61FC52B2F
:10078800C62BC72B5D145D080319CB2BCC2BDC2B98
:100798005D0A031DD02BD12BD92B0030C7000030A8
:1007A800C6000030C5000030C400C617C701E42BDE
:1007B8000030C7000030C6000030C5000030C4005B
:1007C8004708460445044404031DEB2BEC2B052C79
:1007D8000030CB000030CA000030C9000030C8002B
:1007E8008030CA047F30CB045508CC004C08CB04B9
:1007F8004B08C7004A08C6004908C5004808C40095
:10080800642D5C08031D092C0A2C132C0030C7002A
:100818000030C6000030C5000030C400642D5C08FC
:10082800CC00CD014D08CF005D084C02CE00031C62
:10083800CF034E087F3ED6004F080318013E003E06
:10084800D7004B08D4004A08D3004908D20048080A
:10085800D1000030CB000030CA000030C9000030A1
:10086800C8000030DB000030DA000030D90000306A
:10087800D800DD01892C5D080319432C442C642C15
:100888000130CC000310D10DD20DD30DD40DCC0BFB
:10089800462C0130CC000310C80DC90DCA0DCB0D74
:1008A800CC0B4F2CDB1F592C5A2C5B2C48140130D5
:1008B800CC000310D80DD90DDA0DDB0DCC0B5D2C57
:1008C80047085402031D722C46085302031D722C5C
:1008D80045085202031D722C44085102031C752C52
:1008E800762C852C5B174408D1024508031C450F5C
:1008F800D2024608031C460FD3024708031C470FC1
:10090800D4020130CC004C08DD071A305D02031C0C
:100918008E2C8F2C3F2C5408530452045104031975
:10092800962C972CB62C5814B62C0130CC000310FA
:10093800C80DC90DCA0DCB0DCC0B9B2CDB1FA52CEC
:10094800A62CA72C48140130CC000310D80DD90DC3
:10095800DA0DDB0DCC0BA92CFF30D6070318D70A0C
:10096800FF30D707CA1FB92CBA2C992CDD01DB1F21
:10097800BE2CBF2CDB2CFF305805CC00FF305905AE
:10098800CD00FF305A05CE007F305B05CF004F0801
:100998004E044D044C040319D22CD32CD62CDD0163
:1009A800DD0ADB2C481CD92CDA2CDB2CD32C5D0877
:1009B8000319DF2CE02C112D0130C8070030031873
:1009C8000130C907003003180130CA070030031886
:1009D8000130CB074B1CF12CF22C112D4808CC0010
:1009E8004908CD004A08CE004B08CF000130D0009E
:1009F8004F0DCF0CCE0CCD0CCC0CD00BFC2C4F08D3
:100A0800CB004E08CA004D08C9004C08C800013088
:100A1800D6070318D70A0030D7075708803AFF00CF
:100A280080307F02031D1A2DFF305602031C1D2D36
:100A38001E2D2C2DFF3083120313D6000030D70053
:100A48000030CB000030CA000030C9000030C800B8
:100A5800831203135708803AFF0080307F02031D7A
:100A6800372D0130560203183A2D3B2D482D83129D
:100A78000313D601D7010030CB000030CA00003084
:100A8800C9000030C800D501831203135608CC00F2
:100A98004C08DC005C1C512D522D542DCA17582DC2
:100AA8007F30CC004C08CA055C08CC0003104C0C05
:100AB800CD004D08CB005508CC004C08CB04FC2BCE
:100AC80008000A128A15F9260A128A110A128A15CA
:100AD8002E270A128A118312031310140715831282
:100AE80003136603031D792D7A2DC72D6C086D0439
:100AF80003197F2D802DC62D4030AD008030AC000D
:100B08000030AB000030AA006C08F3006D08F40058
:100B1800F501F60100300A128A1190260A128A118C
:100B2800760883120313B1007508B0007408AF008B
:100B38007308AE000A128A1127200A128A1183123A
:100B480003132D08C7002C08C6002B08C5002A0867
:100B5800C4004A30CB00F430CA002430C900003049
:100B6800C8000A128A1188230A128A1183120313F1
:100B78004708E4004608E3004508E2004408E100AD
:100B8800EC01ED01E6016408A3006308A200620815
:100B9800A1006108A0004330A700FF30A600003084
:100BA800A5000030A4000A128A114C270A128A11E3
:100BB800031CDF2DE02D012E443083120313A30004
:100BC8007A30A2000030A1000030A0006408A7001D
:100BD8006308A6006208A5006108A4000A128A1129
:100BE8004C270A128A11031CFA2DFB2D012E8312A1
:100BF8000313E801E80A7F309500831203136408A1
:100C0800A3006308A2006208A1006108A0004330A5
:100C1800A7006630A6000030A5000030A4000A1224
:100C28008A114C270A128A11031C1B2E1C2E3F2ED8
:100C3800433083120313A300AF30A2000030A10099
:100C48000030A0006408A7006308A6006208A50099
:100C58006108A4000A128A114C270A128A11031C7F
:100C6800362E372E3F2E023083120313DE005E0825
:100C7800E800A1309500831203136408A3006308F9
:100C8800A2006208A1006108A0004330A70002305A
:100C9800A6000030A5000030A4000A128A114C27D3
:100CA8000A128A11031C592E5A2E7D2E43308312A4
:100CB8000313A3003E30A2000030A1000030A000C2
:100CC8006408A7006308A6006208A5006108A400DC
:100CD8000A128A114C270A128A11031C742E752EC7
:100CE8007D2E033083120313DE005E08E8008F3088
:100CF8009500153083120313E0004B30DF00BD3040
:100D0800DE00DE0B852EDF0B852EE00B852E8C2E6C
:100D1800732D0A128A110C2883120313A4002408C5
:100D28000319972E982EAC2EF61F9B2E9C2EAC2EB8
:100D38007309A6007409A7007509A8007609A90017
:100D4800A60A0319A70A0319A80A0319A90AB42E9F
:100D58007608A9007508A8007408A7007308A600FB
:100D68007608750474047304031DBB2EBC2EC52EAF
:100D78000030F6000030F5000030F4000030F300D9
:100D88004B2F9630A0002008A500D72E0130A000D8
:100D98002008A50701300310A90CA80CA70CA60C65
:100DA800FF3E031DCF2EFE302905031DDC2EDD2E50
:100DB800CA2EF92E0130A0002008A5070130A60789
:100DC800003003180130A707003003180130A807C6
:100DD800003003180130A90701300310A90CA80C32
:100DE800A70CA60CFF3E031DF12EFF302905031D9D
:100DF800FE2EFF2EDE2E0B2F0130A5020130A000A3
:100E08000310A60DA70DA80DA90DA00B042FA81B54
:100E18000E2F0F2F152F023025020318142F152F10
:100E2800002F2518182F192F212FFF30A605FF3066
:100E3800A7057F30A805FF30A9050310A50C2508D4
:100E4800A000A101A201A30118300310A00DA10D5B
:100E5800A20DA30DFF3E031D292F2008A60421087B
:100E6800A7042208A8042308A904240803193D2F6D
:100E78003E2F432FF61F412F422F432FA917290832
:100E8800F6002808F5002708F4002608F3000800F3
:100E98000030831203132005F30000302105F4000D
:100EA80080302205F5007F302305F60076087504AA
:100EB80074047304031D612F622F6A2F0030A3008E
:100EC8000030A2000030A1000030A000003024054E
:100ED800F30000302505F40080302605F5007F304A
:100EE8002705F6007608750474047304031D7D2F26
:100EF8007E2F862F0030A7000030A6000030A50006
:100F08000030A400A31F892F8A2FAE2F0030F300D2
:100F18000030F4000030F5008030F6002008F302BD
:100F28002108031C210F992F9A2FF4022208031C71
:100F3800220F9F2FA02FF5022308031C230FA52F94
:100F4800A62FF6027608A3007508A2007408A1006F
:100F58007308A000A71FB12FB22FD62F0030F300BF
:100F68000030F4000030F5008030F6002408F30269
:100F78002508031C250FC12FC22FF4022608031CC5
:100F8800260FC72FC82FF5022708031C270FCD2FC0
:100F9800CE2FF6027608A7007508A6007408A500EB
:100FA8007308A4008030A3068030A7062708230210
:100FB800031DE82F26082202031DE82F2508210219
:100FC800031DE82F240820020318EB2FEC2FEE2F27
:100FD8000310EF2F0314080064008001840A04063C
:080FE800031900340406F12F87
:101CF400F60083120313061276080A128A15AE261A
:101D04000A128A158312031386160B30F50062300B
:101D1400F400F40B8B2EF50B8B2E000083120313AF
:101D240086120800F30073088316031393003630F9
:101D3400831203139400803083160313940001303C
:101D44009100871507168B170B17831203138C1139
:101D5400831603138C150800F300731CB22EB32EE4
:101D6400B72E831203130614BA2E8312031306101C
:101D7400F31CBD2EBE2EC02E8614C12E8610731DDC
:101D8400C42EC52EC72E0615C82E0611F31DCB2E44
:101D9400CC2ECE2E8615CF2E861108008312031367
:101DA400A400A001A1017308F500F6017508A200C2
:101DB4007608A300241CDF2EE02EE62E2208A007BE
:101DC4000318A10A2308A10701300310A20DA30DD3
:101DD400FF3E031DE72E0310A40C2408031DF32E5D
:101DE400F42EDC2E2108F4002008F30008008316EA
:101DF400031788018901831603138501880189016A
:101E0400860102308700831203138501860187014E
:101E140088018901831603130F178F160F160F14E9
:101E24008B170B170D14831203130D100914891447
:101E340090018F018E0105309D000C3097004E30CB
:101E44009200FA3083160313920070300A128A1536
:101E540094260A128A15080000300A128A15AE2642
:101E64000A128A15343083120313A100F130A00042
:101E7400A00B3A2FA10B3A2F03300A128A157A26A7
:101E84000A128A150D3083120313A100FB30A0003F
:101E9400A00B4A2FA10B4A2F03300A128A157A2667
:101EA4000A128A151D3083120313A1009030A0007A
:101EB400A00B5A2FA10B5A2F000003300A128A15C7
:101EC4007A260A128A1502300A128A157A260A120A
:101ED4008A1502300A128A157A260A128A150830DF
:101EE4000A128A157A260A128A1500300A128A15ED
:101EF4007A260A128A150C300A128A157A260A12D0
:101F04008A1500300A128A157A260A128A150630B2
:101F14000A128A157A260A128A1508008B1383126C
:101F240003130D1C962F972FA22F10101C08ED00E1
:101F34001B08EC00E601E60A8E018F010D10101457
:101F44008C1DA52FA62FF82F1412141BAA2FAB2F0C
:101F5400AF2F941FAE2FAF2FB62F1308F0007008C9
:101F6400E50014139413141683160313941ABB2F49
:101F7400BC2FD42F1419BF2FC02FD42F83120313B7
:101F84001308F0007008E5008C111416831603136F
:101F9400141CCD2FCE2FC82FA630F000F00BD02F5D
:101FA4000000F52F941AD72FD82FF52F141DDB2FEF
:101FB400DC2FF52F831203131308F0007008E500DB
:101FC4008316031314108312031368089300141662
:101FD400A630F000F00BEC2F000083160313141846
:101FE400F42FF52FEF2F831203138C118B17720824
:0C1FF4008A00710E8300FE0E7E0E0900B4
:04400E00D520FF3F7B
:00000001FF
