:020000040000FA
:060000000A128A110C280F
:10000800FE00030EF1000A08F2000A168A11802F7A
:100018000A128A110F28F801F901FA018312031351
:10002800EE018313C1308400E1300A128A11F627E9
:100038000A128A1183010A128A15DD2A831603130C
:100048003108013EB800003003180130B900BC0186
:10005800BD012F0883120313A300831603132E0870
:1000680083120313A200831603132D0883120313AC
:10007800A100831603132C0883120313A000003079
:10008800A7000030A6000030A5000030A4000A1226
:100098008A155C200A128A110318532854287828D4
:1000A8002D30F70083160313300884007708831374
:1000B80080000130F7007708B0072F08F6002E08F7
:1000C800F5002D08F4002C08F3000A168A113025D3
:1000D8000A128A11760883160313AF007508AE005A
:1000E8007408AD007308AC00003083120313A3003A
:1000F8000030A2000030A1000030A00083160313D6
:100108002F0883120313A700831603132E088312E4
:100118000313A600831603132D0883120313A500E7
:10012800831603132C0883120313A4000A128A15DA
:100138005C200A128A110318A228A3285829E92842
:10014800413083120313AD002030AC000030AB0007
:100158000030AA00831603132F0883120313B1007B
:10016800831603132E0883120313B0008316031398
:100178002D0883120313AF00831603132C08831270
:100188000313AE000A128A11B0230A128A118312CD
:1001980003132D0883160313AF00831203132C08CF
:1001A80083160313AE00831203132B08831603135D
:1001B800AD00831203132A0883160313AC00FF3023
:1001C800BC070318BD0AFF30BD07831603132F08A9
:1001D80083120313A300831603132E088312031339
:1001E800A200831603132D0883120313A10083169C
:1001F80003132C0883120313A0003F30A70080309C
:10020800A6000030A5000030A4000A128A155C2060
:100218000A128A11031C11291229A42858294130CD
:1002280083120313C7002030C6000030C500003019
:10023800C400831603132F0883120313CB008316FD
:1002480003132E0883120313CA00831603132D0801
:1002580083120313C900831603132C088312031394
:10026800C8000A128A1500210A128A118312031380
:10027800470883160313AF00831203134608831637
:100288000313AE0083120313450883160313AD004E
:1002980083120313440883160313AC000130BC0710
:1002A8000318BD0A0030BD07831603132F088312F5
:1002B8000313A300831603132E0883120313A2004B
:1002C800831603132D0883120313A1008316031347
:1002D8002C0883120313A0004130A7002030A60089
:1002E8000030A5000030A4000A128A155C200A120A
:1002F8008A110318802981291329831603133C08BE
:100308003807B8003D0803183D0A3907B90001301D
:10031800BA000030BB003A08F3003B08F400003094
:10032800F41BFF30F500F60001300A128A1111277C
:100338000A128A11760883160313B7007508B600E7
:100348007408B5007308B400EE2941308312031312
:10035800C7002030C6000030C5000030C400831636
:100368000313370883120313CB00831603133608CD
:1003780083120313CA008316031335088312031369
:10038800C90083160313340883120313C8000A1222
:100398008A1500210A128A1183120313470883164B
:1003A8000313B70083120313460883160313B6001A
:1003B80083120313450883160313B500831203132E
:1003C800440883160313B4000130BA070318BB0AA4
:1003D8000030BB073B08803AF7003908803A7702BB
:1003E800031DF82938083A02031CFB29FC29A9290E
:1003F80083160313370883120313CB0083160313E2
:10040800360883120313CA008316031335088312B0
:100418000313C90083160313340883120313C80097
:100428004030C7000030C6000030C5000030C400AE
:100438000A128A1500210A128A1183120313470827
:10044800E1004608E0004508DF004408DE008316A6
:1004580003132F0883120313E500831603132E08D2
:1004680083120313E400831603132D088312031366
:10047800E300831603132C0883120313E2000A1205
:100488008A15C0240A128A1183120313610883167D
:100498000313AF0083120313600883160313AE001F
:1004A800831203135F0883160313AD00831203132B
:1004B8005E0883160313AC002F0883120313A300EE
:1004C800831603132E0883120313A2008316031343
:1004D8002D0883120313A100831603132C0883121B
:1004E8000313A0004130A7002030A6000030A5006B
:1004F8000030A4000A128A155C200A128A11031C13
:10050800862A872A972A3F3083160313AF00803044
:10051800AE000030AD000030AC000130BC0703185D
:10052800BD0A0030BD0783160313BD1F9C2A9D2AF0
:10053800E42A3030F70030088400770883138000FD
:100548000130F7007708B0072E30F7003008840034
:10055800770880000130F7007708B007B91FB52A7F
:10056800B62ABE2A38083C02BC003908031C390ADE
:100578003D02BD00FF30BA00FF30BB00D62A303044
:10058800F70083160313300884007708831380006C
:100598000130F7007708B007FF30BA070318BB0A25
:1005A800FF30BB073D08803AF7003B08803A7702E6
:1005B800031DE02A3A083C02031CE32AE42AC32A62
:1005C80083160313BA01BB019B2B831603132F0851
:1005D800F6002E08F5002D08F4002C08F3000A1682
:1005E8008A1104270A128A11740883160313B300A8
:1005F8007308B2003208303EF700300884007708EC
:10060800831380000130F7007708B0073D083B06E8
:10061800031D102B3C083A06031D132B142B1E2B0D
:100628002E30F70030088400770880000130F7008A
:100638007708B0073208F3003308F4000030F41BE1
:10064800FF30F500F60001300A128A1111270A124C
:100658008A11760883160313B7007508B600740864
:10066800B5007308B4003708A7003608A600350897
:10067800A5003408A4002F08AB002E08AA002D08F6
:10068800A9002C08A8000A168A1152260A128A11F3
:10069800831603132708AF002608AE002508AD000F
:1006A8002408AC00413083120313AD002030AC00A5
:1006B8000030AB000030AA00831603132F08831202
:1006C8000313B100831603132E0883120313B0001B
:1006D800831603132D0883120313AF008316031325
:1006E8002C0883120313AE000A128A11B0230A12CF
:1006F8008A11831203132D0883160313AF00831284
:1007080003132C0883160313AE00831203132B085C
:1007180083160313AD00831203132A0883160313E9
:10072800AC000130BA070318BB0A0030BB073B080E
:10073800803AF7003908803A7702031DA52B38085C
:100748003A02031CA82BA92BE92A831603133008A5
:100758008400831380010800831203132D08803955
:10076800B2003208B7002D08B2003207B3003308D0
:10077800BD00AC1FC02BC12BC22B3D143D08031973
:10078800C62BC72BD62B3D0A031DCB2BCC2BD42B2A
:100798000030AD000030AC000030AB000030AA00E3
:1007A800AC17DE2B0030AD000030AC000030AB00E1
:1007B8000030AA0031088039B2003208B706310883
:1007C800B2003207B3003308BC00B01FEC2BED2B8E
:1007D800EE2B3C143C080319F22BF32B022C3C0A99
:1007E800031DF72BF82B002C0030B1000030B000AF
:1007F8000030AF000030AE00B0170A2C0030B10056
:100808000030B0000030AF000030AE003C080319E3
:100818000E2C0F2C142C3D08031D132C142C1D2CEE
:100828000030AD000030AC000030AB000030AA0052
:10083800102F2A08B2003208F30030080A128A1171
:10084800CD270A128A11740883120313C300730890
:10085800C2004208B200B301B401B5013508BB00BB
:100868003408BA003308B9003208B8004308B200A7
:10087800B301B401B5013508C1003408C00033081C
:10088800BF003208BE002B08B2003208F3002F0860
:100898000A128A11CD270A128A11740883120313C7
:1008A800C3007308C2004208B200B301B401B50125
:1008B8003208B807330803110318013E0319652CE1
:1008C800B907340803110318013E03196C2CBA0741
:1008D800350803110318013E0319732CBB0743089D
:1008E800B200B301B401B5013208BE0733080311E1
:1008F8000318013E0319812CBF073408031103189C
:10090800013E0319882CC007350803110318013E5E
:1009180003198F2CC1072C08B2003208F3002E08E7
:100928000A128A11CD270A128A1174088312031336
:10093800C3007308C2004208B200B301B401B50194
:100948003208B807330803110318013E0319AD2C08
:10095800B907340803110318013E0319B42CBA0768
:10096800350803110318013E0319BB2CBB074308C4
:10097800B200B301B401B5013208BE073308031150
:100988000318013E0319C92CBF07340803110318C3
:10099800013E0319D02CC007350803110318013E86
:1009A8000319D72CC1070830B2000310B80DB90DD0
:1009B800BA0DBB0DB20BD92C2B08B2003208F300CC
:1009C8002E080A128A11CD270A128A117408831276
:1009D8000313C3007308C2004208B2004308B300FF
:1009E800B401B5013208B807330803110318013EF2
:1009F8000319FF2CB907340803110318013E031922
:100A0800062DBA07350803110318013E03190D2DE9
:100A1800BB072A08B2003208F3002F080A128A110D
:100A2800CD270A128A11740883120313C3007308AE
:100A3800C2004208B2004308B300B401B50132084D
:100A4800B807330803110318013E03192C2DB90701
:100A5800340803110318013E0319332DBA0735086A
:100A680003110318013E03193A2DBB070830B200E1
:100A78000310B80DB90DBA0DBB0DB20B3C2D2A08E9
:100A8800B2003208F3002E080A128A11CD270A1282
:100A98008A11740883120313C3007308C200420842
:100AA800B2004308B300B401B5013208B8073308EF
:100AB80003110318013E0319622DB9073408031105
:100AC8000318013E0319692DBA07350803110318E5
:100AD800013E0319702DBB072B08B2003208F30042
:100AE80030080A128A11CD270A128A117408831253
:100AF8000313C3007308C2004208B2004308B300DE
:100B0800B401B5013208BE07330803110318013ECA
:100B180003198F2DBF07340803110318013E031969
:100B2800962DC007350803110318013E03199D2DA2
:100B3800C1072C08B2003208F3002F080A128A11E4
:100B4800CD270A128A11740883120313C30073088D
:100B5800C2004208B2004308B300B401B50132082C
:100B6800BE07330803110318013E0319BC2DBF0744
:100B7800340803110318013E0319C32DC0073508B3
:100B880003110318013E0319CA2DC1072C08B2002E
:100B98003208F30030080A128A11CD270A128A1186
:100BA800740883120313C3007308C2004208B2001A
:100BB8004308B300B401B50108300310B20DB30DFA
:100BC800B40DB50DFF3E031DE12D3208BE073308F5
:100BD80003110318013E0319F22DBF07340803114E
:100BE8000318013E0319F92DC0073508031103182E
:100BF800013E0319002EC1073808B2003908B300B6
:100C08003A08B4003B08B50018300310B50CB40C12
:100C1800B30CB20CFF3E031D092E3208BE07330881
:100C280003110318013E03191A2EBF0734080311D4
:100C38000318013E0319212EC007350803110318B4
:100C4800013E0319282EC1070830B2000310B80D61
:100C5800B90DBA0DBB0DB20B2A2E3D083C07B200E8
:100C6800B301B30D3208823EC20033080318013EB7
:100C7800FF3EC3005C2E0130B2000310BE0DBF0D55
:100C8800C00DC10DB20B412EBB1F4B2E4C2E4D2E4D
:100C98003E140130B2000310B80DB90DBA0DBB0DEA
:100CA800B20B4F2EFF30C2070318C30AFF30C30729
:100CB800C01F5F2E602E3F2EBC01BB1F642E652E09
:100CC800812EFF303805B200FF303905B300FF3000
:100CD8003A05B4007F303B05B500350834043304C9
:100CE80032040319782E792E7C2EBC01BC0A812E81
:100CF8003E1C7F2E802E812E792E3C080319852ECE
:100D0800862EB72E0130BE07003003180130BF070A
:100D1800003003180130C007003003180130C10744
:100D2800411C972E982EB72E3E08B2003F08B300FC
:100D38004008B4004108B5000130B600350DB50CC7
:100D4800B40CB30CB20CB60BA22E3508C100340893
:100D5800C0003308BF003208BE000130C2070318C4
:100D6800C30A0030C3074308803AFF0080307F027F
:100D7800031DC02EFF304202031CC32EC42ECF2EEB
:100D88007F3083120313C1008030C0000030BF00E1
:100D98000030BE00042F831203134308803AFF007B
:100DA80080307F02031DDA2E013042020318DD2E47
:100DB800DE2EEA2E003083120313C1000030C0007B
:100DC8000030BF000030BE00B701042F83120313A8
:100DD8004208B2003208BD00FF30BE05FF30BF0533
:100DE8007F30C0050030C1053D1CFB2EFC2EFD2EBA
:100DF800C0173D08B2000310320CB3003308C1001D
:100E08003708B2003208C1044108AD004008AC0000
:100E18003F08AB003E08AA00080083120313A40091
:100E280024080319182F192F2D2FF61F1C2F1D2FDB
:100E38002D2F7309A6007409A7007509A800760963
:100E4800A900A60A0319A70A0319A80A0319A90AD7
:100E5800352F7608A9007508A8007408A70073083C
:100E6800A6007608750474047304031D3C2F3D2FF7
:100E7800462F0030F6000030F5000030F400003056
:100E8800F300CC2F9630A0002008A500582F013081
:100E9800A0002008A50701300310A90CA80CA70C76
:100EA800A60CFF3E031D502FFE302905031D5D2FA4
:100EB8005E2F4B2F7A2F0130A0002008A5070130A4
:100EC800A607003003180130A707003003180130C7
:100ED800A807003003180130A90701300310A90C36
:100EE800A80CA70CA60CFF3E031D722FFF30290586
:100EF800031D7F2F802F5F2F8C2F0130A50201301B
:100F0800A0000310A60DA70DA80DA90DA00B852FF5
:100F1800A81B8F2F902F962F023025020318952F8C
:100F2800962F812F2518992F9A2FA22FFF30A605CB
:100F3800FF30A7057F30A805FF30A9050310A50CD1
:100F48002508A000A101A201A30118300310A00DDB
:100F5800A10DA20DA30DFF3E031DAA2F2008A60474
:100F68002108A7042208A8042308A90424080319AF
:100F7800BE2FBF2FC42FF61FC22FC32FC42FA917F0
:100F88002908F6002808F5002708F4002608F300C9
:100F9800080083120313A400A001A1017308F5003F
:100FA800F6017508A2007608A300241CDC2FDD2FAB
:100FB800E32F2208A0070318A10A2308A10701307C
:100FC8000310A20DA30DFF3E031DE42F0310A40C74
:100FD8002408031DF02FF12FD92F2108F400200831
:100FE800F300080064008001840A04060319003431
:040FF8000406F72FC5
:1010080083120313A2002203031D0B280C28312886
:1010180077087F3EA0002008A5002508A00004301E
:101028000310A00CFF3E031D14282008A10021086E
:10103800A30025080F39A0002008A40023080A16D9
:101048008A1148250A128A158312031324080A16DE
:101058008A1148250A128A155B2802302206031DC8
:10106800362837285B287708BF3EA0002008A5004F
:101078002508A00004300310A00CFF3E031D3F28E4
:101088002008A1002108A30025080F39A000200886
:10109800A40023080A168A1148250A128A15831201
:1010A800031324080A168A1148250A128A1508000B
:1010B8000030831203132005F30000302105F400EB
:1010C80080302205F5007F302305F6007608750488
:1010D80074047304031D712872287A280030A30051
:1010E8000030A2000030A1000030A000003024052C
:1010F800F30000302505F40080302605F5007F3028
:101108002705F6007608750474047304031D8D28FA
:101118008E2896280030A7000030A6000030A500D1
:101128000030A400A31F99289A28BE280030F30095
:101138000030F4000030F5008030F6002008F3029B
:101148002108031C210FA928AA28F4022208031C3D
:10115800220FAF28B028F5022308031C230FB52857
:10116800B628F6027608A3007508A2007408A10044
:101178007308A000A71FC128C228E6280030F30082
:101188000030F4000030F5008030F6002408F30247
:101198002508031C250FD128D228F4022608031C91
:1011A800260FD728D828F5022708031C270FDD2883
:1011B800DE28F6027608A7007508A6007408A500C0
:1011C8007308A4008030A3068030A70627082302EE
:1011D800031DF82826082202031DF82825082102E5
:1011E800031DF828240820020318FB28FC28FE28E1
:1011F8000310FF2803140800831203134B088039D7
:10120800CC004C08D5004B08CC004C07CD004D084D
:10121800DC00CA1F1029112912295C145C08031963
:101228001629172927295C0A031D1B291C2924298B
:101238000030CB000030CA000030C9000030C800C0
:10124800CA17CB012F290030CB000030CA0000306C
:10125800C9000030C80047088039CC004C08D506C2
:101268004708CC004C07CD004D08DD00C61F3D29BE
:101278003E293F295D145D0803194329442954294F
:101288005D0A031D4829492951290030C70000304B
:10129800C6000030C5000030C400C617C7015C296D
:1012A8000030C7000030C6000030C5000030C40060
:1012B8004708460445044404031D632964297D291D
:1012C8000030CB000030CA000030C9000030C80030
:1012D8008030CA047F30CB045508CC004C08CB04BE
:1012E8004B08C7004A08C6004908C5004808C4009A
:1012F800DC2A5C08031D812982298B290030C7005C
:101308000030C6000030C5000030C400DC2A5C088C
:10131800CC00CD014D08CF005D084C02CE00031C67
:10132800CF034E087F3ED6004F080318013E003E0B
:10133800D7004B08D4004A08D3004908D20048080F
:10134800D1000030CB000030CA000030C9000030A6
:10135800C8000030DB000030DA000030D90000306F
:10136800D800DD01012A5D080319BB29BC29DC2945
:101378000130CC000310D10DD20DD30DD40DCC0B00
:10138800BE290130CC000310C80DC90DCA0DCB0D04
:10139800CC0BC729DB1FD129D229D3294814013006
:1013A800CC000310D80DD90DDA0DDB0DCC0BD529E7
:1013B80047085402031DEA2946085302031DEA2977
:1013C80045085202031DEA2944085102031CED296D
:1013D800EE29FD295B174408D1024508031C450F77
:1013E800D2024608031C460FD3024708031C470FC6
:1013F800D4020130CC004C08DD071A305D02031C12
:10140800062A072AB7295408530452045104031919
:101418000E2A0F2A2E2A58142E2A0130CC00031027
:10142800C80DC90DCA0DCB0DCC0B132ADB1F1D2A05
:101438001E2A1F2A48140130CC000310D80DD90DDC
:10144800DA0DDB0DCC0B212AFF30D6070318D70A9B
:10145800FF30D707CA1F312A322A112ADD01DB1FC4
:10146800362A372A532AFF305805CC00FF30590551
:10147800CD00FF305A05CE007F305B05CF004F0806
:101488004E044D044C0403194A2A4B2A4E2ADD0106
:10149800DD0A532A481C512A522A532A4B2A5D082E
:1014A8000319572A582A892A0130C8070030031817
:1014B8000130C907003003180130CA07003003188B
:1014C8000130CB074B1C692A6A2A892A4808CC00B4
:1014D8004908CD004A08CE004B08CF000130D000A3
:1014E8004F0DCF0CCE0CCD0CCC0CD00B742A4F0862
:1014F800CB004E08CA004D08C9004C08C80001308E
:10150800D6070318D70A0030D7075708803AFF00D4
:1015180080307F02031D922AFF305602031C952A51
:10152800962AA42AFF3083120313D6000030D7006E
:101538000030CB000030CA000030C9000030C800BD
:10154800831203135708803AFF0080307F02031D7F
:10155800AF2A013056020318B22AB32AC02A8312CE
:101568000313D601D7010030CB000030CA00003089
:10157800C9000030C800D501831203135608CC00F7
:101588004C08DC005C1CC92ACA2ACC2ACA17D02AF3
:101598007F30CC004C08CA055C08CC0003104C0C0A
:1015A800CD004D08CB005508CC004C08CB0474295D
:1015B80008000A168A119E250A128A150A168A1127
:1015C800A2260A128A150A168A113B250A128A15BA
:1015D800F701F70A01300A128A1504200A128A153F
:1015E800013083120313A0008030A1000A168A116B
:1015F8000C260A128A158312031310140715831672
:1016080003134603031D092B0A2B692B5F0860048B
:1016180003190F2B102B682B403083120313AD00D6
:101628008030AC000030AB000030AA0083160313F2
:101638005F08F3006008F400F501F60100300A12B3
:101648008A1111270A128A15760883120313B1002A
:101658007508B0007408AF007308AE000A128A114A
:10166800B0230A128A15831203132D08C7002C0809
:10167800C6002B08C5002A08C4004A30CB00F43045
:10168800CA002430C9000030C8000A128A15002197
:101698000A128A1583120313470883160313C4001A
:1016A80083120313460883160313C300831203131C
:1016B800450883160313C2008312031344088316D4
:1016C8000313C100DF01E001C6014408AF0043086D
:1016D800AE004208AD004108AC00CB30BE003E0869
:1016E800B0000230BF003F08B1000A128A11222060
:1016F8000A128A15053083160313BE003E08F70048
:1017080002300A128A1504200A128A15CB30831275
:101718000313A0000030A1000A168A110C260A1231
:101728008A1583160313440883120313A300831630
:101738000313430883120313A200831603134208FA
:1017480083120313A10083160313410883120313A2
:10175800A0004330A700FF30A6000030A5000030ED
:10176800A4000A128A155C200A128A15031CBD2BD4
:10177800BE2BF12B443083120313A3007A30A2004E
:101788000030A1000030A000831603134408831220
:101798000313A70083160313430883120313A60039
:1017A80083160313420883120313A5008316031339
:1017B800410883120313A4000A128A155C200A1236
:1017C8008A15031CE82BE92BF12B83160313C80198
:1017D800C80A7F3083120313950083160313440845
:1017E80083120313A30083160313430883120313FE
:1017F800A20083160313420883120313A100831661
:101808000313410883120313A0004330A700663076
:10181800A6000030A5000030A4000A128A155C203A
:101828000A128A15031C192C1A2C4F2C43308312C8
:101838000313A300AF30A2000030A1000030A000C5
:1018480083160313440883120313A7008316031394
:10185800430883120313A600831603134208831256
:101868000313A50083160313410883120313A4006E
:101878000A128A155C200A128A15031C442C452C6E
:101888004F2C023083160313BE003E08C800A13057
:10189800831203139500831603134408831203135A
:1018A800A30083160313430883120313A2008316AD
:1018B8000313420883120313A1008316031341087C
:1018C80083120313A0004330A7000230A6000030A3
:1018D800A5000030A4000A128A155C200A128A1595
:1018E800031C772C782CAD2C433083120313A300F0
:1018F8003E30A2000030A1000030A0008316031380
:10190800440883120313A7008316031343088312A2
:101918000313A60083160313420883120313A500BA
:1019280083160313410883120313A4000A128A15AD
:101938005C200A128A15031CA22CA32CAD2C0330A0
:1019480083160313BE003E08C8008F3083120313AA
:101958009500153083160313C0004B30BF00BD300F
:10196800BE00BE0BB52CBF0BB52CC00BB52CBC2CC8
:10197800032B0A128A110C28831203136108803979
:10198800E600660883160313A00083120313610898
:10199800E6006607E700670883160313A2008312B0
:1019A8000313E01FD82CD92CDC2C83160313221424
:1019B8008316031322080319E22CE32CF62C220ABF
:1019C800031DE72CE82CF22C003083120313E100EE
:1019D8000030E0000030DF000030DE008312E01746
:1019E800E101002D003083120313E1000030E00014
:1019F8000030DF000030DE0065088039E600660848
:101A080083160313A1002108200603190C2D0D2DA0
:101A18000E2D2017831203136508E6006607E700FA
:101A2800670883160313A10083120313E41F1D2DF7
:101A38001E2D212D83160313211483160313210849
:101A48000319272D282D3B2D210A031D2C2D2D2D63
:101A5800372D003083120313E5000030E400003016
:101A6800E3000030E2008312E417E501452D003061
:101A780083120313E5000030E4000030E300003077
:101A8800E200831603132208210203184C2D4D2D62
:101A9800C32D201F502D512D592D80308312031333
:101AA800E600660883160313A006220883120313B0
:101AB800E600660883160313A300210883120313A4
:101AC800E600660883160313A20023088312031393
:101AD800E600660883160313A100831203135E0849
:101AE800E600660883160313A30083120313620833
:101AF800E6006608DE008316031323088312031327
:101B0800E6006608E2005F08E6006608831603132D
:101B1800A300831203136308E6006608DF00831638
:101B28000313230883120313E6006608E300600822
:101B3800E600660883160313A300831203136408E0
:101B4800E6006608E00083160313230883120313D4
:101B5800E6006608E4006108E600660883160313D9
:101B6800A300831203136508E6006608E1008316E4
:101B78000313230883120313E6006608E50083169F
:101B88000313A301210883120313E600E701670882
:101B9800E900831603132208831203136602E80080
:101BA800031CE9036908803AFF0080307F02031DA7
:101BB800DF2D1A306802031CE22DE32D352E831227
:101BC8000313610860045F045E04031DEC2DEE2D11
:101BD8000130EF2D0030E600660883160313A300DA
:101BE800003083120313E1000030E0000030DF0012
:101BF8000030DE0083160313210883120313E60066
:101C0800660883160313A2003D2E231C0C2E0D2EEE
:101C18001A2E230883120313E6000310660C0138FA
:101C2800E700670883160313A3001C2E0310A30CF8
:101C3800831203135E1C212E222E252E83160313D6
:101C4800A31701308312E600610DE10CE00CDF0CF4
:101C5800DE0CE60B282E0130E60066088316031317
:101C6800A2078316031321082202031C3C2E3D2ED3
:101C7800092E201B402E412E9D2E2208031D452E85
:101C8800462E512E003083120313E1000030E0008D
:101C98000030DF000030DE00FF2F831203136208DC
:101CA800DE07630803110318013E03195C2EDF07E2
:101CB800640803110318013E0319632EE007650841
:101CC80003110318013E03196A2EE107611C6D2EEA
:101CD8006E2E632F83160313231C732E742E812EEE
:101CE800230883120313E6000310660C0138E7008B
:101CF800670883160313A300832E0310A30C831213
:101D080003135E1C882E892E8C2E83160313A317AB
:101D180001308312E600610DE10CE00CDF0CDE0CF3
:101D2800E60B8F2E0130E600660883160313A20720
:101D3800632F831203136108803AFF006508803A15
:101D48007F02031DB12E64086002031DB12E6308D3
:101D58005F02031DB12E62085E020318B42EB52E71
:101D6800112FFF30E600FF30E700FF30E800FF30BA
:101D7800E9006208EA006308EB006408EC00650803
:101D8800ED005E08EA025F08031C5F0FCC2ECD2E23
:101D9800EB026008031C600FD22ED32EEC02610800
:101DA800031C610FD82ED92EED026A08E6076B08CE
:101DB80003186B0FE02EE12EE7076C0803186C0F71
:101DC800E62EE72EE8076D0803186D0AE90769088B
:101DD800E1006808E0006708DF006608DE00803080
:101DE800E600660883160313A006A309A30A2308BE
:101DF800031DFF2E002F1F2F013083120313DE0750
:101E0800003003180130DF07003003180130E00705
:101E1800003003180130E1071F2F6208DE02630853
:101E2800031C630FDF026408031C640FE0026508EB
:101E3800031C650FE1028312610860045F045E04FD
:101E4800031D272F282F5E2F831603132308031D36
:101E58002E2F2F2F5E2F003083120313E100003046
:101E6800E0000030DF000030DE00FF2F0130E60028
:101E78000310DE0DDF0DE00DE10DE60B3C2F8316A0
:101E88000313A31F482F492F4C2F831203135E14EB
:101E980083160313231C512F522F552F0314A30D00
:101EA800572F0310A30D220803195B2F5C2F5E2FF9
:101EB8000130A2028312E01F622F632F3A2F83168C
:101EC8000313A101A31F692F6A2F7C2F23087F39D1
:101ED80003196F2F702F752F83160313A101A10A01
:101EE8007C2F831203135E1C7A2F7B2F7C2F702F7D
:101EF8008316031321080319822F832FBF2F013064
:101F080083120313DE07003003180130DF070030A7
:101F180003180130E007003003180130E107611CA5
:101F2800962F972FBF2F5E08E6005F08E70060082E
:101F3800E8006108E9000130EA00690DE90CE80CE5
:101F4800E70CE60CEA0BA12F6908E1006808E0003D
:101F58006708DF006608DE0083160313220A0319E8
:101F6800B62FB72FBF2F013083120313E600660880
:101F780083160313A20783160313220A0319C52F16
:101F8800C62FCB2F2208031DCA2FCB2FDD2F0030E1
:101F980083120313E1000030E0000030DF0000305E
:101FA800DE00831603132208031DDB2FDC2FDD2F31
:101FB800A001221CE02FE12FE52F83120313E01765
:101FC800EB2F7F3083120313E6006608E0058316C3
:101FD8000313220883120313E6000310660CE700BC
:101FE8006708E10083160313A01FFB2FFC2FFF2FA8
:101FF80083120313E1170800FF1B0A2883137F18B5
:1020080083170008840A0319FF0A080010308A00A1
:102018000408840A82070034463452344534433471
:0E202800553445344E34433449344134003489
:102A600076087504740473040319372D382D3A2D34
:102A70008030F606080000300A168A1148250A162A
:102A80008A1101300A168A1148250A168A1108008F
:102A9000F60083120313061276080A168A117C25A3
:102AA0000A168A118312031386160B30F500623062
:102AB000F400F40B592DF50B592D0000831203136C
:102AC00086120800F3007308831603139300363050
:102AD0008312031394008030831603139400013093
:102AE0009100871507168B170B17831203138C1190
:102AF000831603138C150800F300731C802D812DA1
:102B0000852D831203130614882D831203130610D8
:102B1000F31C8B2D8C2D8E2D86148F2D8610731DFE
:102B2000922D932D952D0615962D0611F31D992D99
:102B30009A2D9C2D86159D2D86110800831603174E
:102B400088018901831603138501880189018601A3
:102B500002308700831203138501860187018801F3
:102B60008901831603130F178F160F160F148B1777
:102B70000B170D14831203130D10091489149001FF
:102B80008F018E0105309D000C3097004E30920071
:102B9000FA3083160313920070300A168A116225E8
:102BA0000A168A110800F70077080F39F400740834
:102BB000F5007708F039F4007408F6008312031367
:102BC00006167608F40004300310F40CFF3E031DD3
:102BD000E42D74080A168A117C250A168A118312BC
:102BE000031386161A30F400F40BF42D0000831240
:102BF0000313861275080A168A117C250A168A1193
:102C00008312031386161A30F400F40B052E00000D
:102C1000831203138612080083120313A501A60171
:102C2000352E25082007A3002108A2000318A20AB8
:102C3000A51F1B2EA203831203132208A40024083D
:102C4000FF00230884000A168A1100200A168A1140
:102C50000A168A11D3250A168A110130831203132A
:102C6000A5070318A60A0030A60725082007A30019
:102C70002108A2000318A20AA51F3F2EA203831257
:102C800003132208A4002408FF00230884000A1666
:102C90008A1100200A168A11003A031D502E512E67
:102CA000112E0800803083160313A7062B08831209
:102CB0000313E100831603132A0883120313E000B1
:102CC00083160313290883120313DF0083160313EB
:102CD000280883120313DE008316031327088312C8
:102CE0000313E50083160313260883120313E4007D
:102CF00083160313250883120313E30083160313BB
:102D0000240883120313E2000A128A15C0240A164B
:102D10008A1183120313610883160313A700831219
:102D20000313600883160313A600831203135F08BE
:102D300083160313A500831203135E08831603137F
:102D4000A400080000300A168A117C250A168A1190
:102D5000343083120313A100F130A000A00BAE2E7B
:102D6000A10BAE2E03300A168A1148250A168A11C5
:102D70000D3083120313A100FB30A000A00BBE2E68
:102D8000A10BBE2E03300A168A1148250A168A1195
:102D90001D3083120313A1009030A000A00BCE2E93
:102DA000A10BCE2E000003300A168A1148250A1600
:102DB0008A1102300A168A1148250A168A11023031
:102DC0000A168A1148250A168A1108300A168A112D
:102DD00048250A168A1100300A168A1148250A1653
:102DE0008A110C300A168A1148250A168A110030F9
:102DF0000A168A1148250A168A1106300A168A11FF
:102E000048250A168A1108000310750D760D8312E5
:102E10000313A0002008A6002608031D102F112F61
:102E20001A2F0030F6000030F5000030F4000030BA
:102E3000F3007F2F7308A0007408A1007508A2009A
:102E40007608A3001F300310A30CA20CA10CA00C49
:102E5000FF3E031D232F2008A4002408A500F5171A
:102E6000FF30F305FF30F405FF30F5050030F605BF
:102E70009630A602A61F3D2F3E2F582F2608803AD7
:102E8000973E0318442F452F462F112F0130031072
:102E9000F60CF50CF40CF30CFF3E031D472F01302C
:102EA000A0002008A607031D562F572F462F6F2F6F
:102EB00020302602031C5D2F5E2F6A2F112F013058
:102EC000A0000310F30DF40DF50DF60DA00B612F0E
:102ED0000130A6022608031D6E2F6F2F5F2F2508D5
:102EE0000319732F742F7F2FF309F409F509F609DD
:102EF000F30A0319F40A0319F50A0319F60A08007C
:102F00008B13831203130D1C862F872F9A2F1010FB
:102F10001C0883160313E000831203131B08831697
:102F20000313DF00C601C60A831203138E018F014B
:102F30000D1010148C1D9D2F9E2FF82F1412141B92
:102F4000A22FA32FA72F941FA62FA72FB22F1308AE
:102F5000F000700883160313C500831203131413C3
:102F60009413141683160313941AB72FB82FD42F63
:102F70001419BB2FBC2FD42F831203131308F00096
:102F8000700883160313C500831203138C111416E3
:102F900083160313141CCD2FCE2FC82FA630F0009C
:102FA000F00BD02F0000F52F941AD72FD82FF52F24
:102FB000141DDB2FDC2FF52F831203131308F000F1
:102FC000700883160313C5001410480883120313F6
:102FD00093001416A630F000F00BEC2F00008316BF
:102FE00003131418F42FF52FEF2F831203138C11F2
:102FF0008B1772088A00710E8300FE0E7E0E090088
:04400E00D520FF3F7B
:00000001FF
