:020000040000FA
:060000000A128A110C280F
:10000800FE00030EF0000A08F1000A168A11DC2F20
:100018000A128A110F28FA01FB018313A030840009
:10002800C1300A128A1501200A128A1183010A12A4
:100038008A11092F831603134E08013ED50000309C
:1000480003180130D600D901DA014C08F5004B0835
:10005800F4004A08F3004908F2000030F9000030C3
:10006800F8000030F7000030F6000A128A153B222B
:100078000A128A110318412842286C282D3083124D
:100088000313EE00831603134D0884008312031331
:100098006E08831380000130EE006E088316031388
:1000A800CD074C08F5004B08F4004A08F30049084E
:1000B800F2000A128A1509200A128A117508831695
:1000C8000313CC007408CB007308CA007208C90077
:1000D8000030F5000030F4000030F3000030F2008A
:1000E800831603134C08F9004B08F8004A08F70078
:1000F8004908F6000A128A153B220A128A110318C7
:10010800862887282E29CD28413083120313A90079
:100118002030A8000030A7000030A6008316031383
:100128004C0883120313AD00831603134B08831284
:100138000313AC00831603134A0883120313AB009E
:1001480083160313490883120313AA000A128A119B
:10015800A8230A128A11831203132908831603138A
:10016800CC0083120313280883160313CB008312D1
:100178000313270883160313CA00831203132608E0
:1001880083160313C900FF30D9070318DA0AFF30B2
:10019800DA07831603134C08F5004B08F4004A08E5
:1001A800F3004908F2003F30F9008030F8000030D1
:1001B800F7000030F6000A128A153B220A128A114B
:1001C800031CE728E82888282E29413083120313C6
:1001D800C3002030C2000030C1000030C0008316C8
:1001E80003134C0883120313C700831603134B0829
:1001F80083120313C600831603134A0883120313DA
:10020800C50083160313490883120313C4000A1296
:100218008A159B230A128A11831203134308831633
:100228000313CC0083120313420883160313CB0075
:1002380083120313410883160313CA00831203139E
:10024800400883160313C9000130D9070318DA0AD6
:100258000030DA07831603134C08F5004B08F40046
:100268004A08F3004908F2004130F9002030F8004C
:100278000030F7000030F6000A128A153B220A12F5
:100288008A11031848294929E928831603135908AC
:100298005507D5005A0803185A0A5607D6000130E0
:1002A800D7000030D8005708F2005808F300003093
:1002B800F31BFF30F400F50001300A128A15DF2223
:1002C8000A128A11750883160313D4007408D30020
:1002D8007308D2007208D100B62941308312031383
:1002E800C3002030C2000030C1000030C0008316B7
:1002F8000313540883120313C70083160313530808
:1003080083120313C60083160313520883120313C0
:10031800C50083160313510883120313C4000A127D
:100328008A159B230A128A11831203134308831622
:100338000313D40083120313420883160313D30054
:1003480083120313410883160313D2008312031385
:10035800400883160313D1000130D7070318D80AC1
:100368000030D8075808803A83120313EE0083162A
:1003780003135608803A831203136E02031DC8291B
:100388008316031355085702031CCB29CC2971295E
:1003980083160313540883120313C7008316031329
:1003A800530883120313C6008316031352088312DB
:1003B8000313C50083160313510883120313C400E3
:1003C8004030C3000030C2000030C1000030C0001F
:1003D8000A128A159B230A128A11831203134308EF
:1003E800DD004208DC004108DB004008DA00831623
:1003F80003134C0883120313E100831603134B08FD
:1004080083120313E000831603134A0883120313AD
:10041800DF0083160313490883120313DE000A1250
:100428008A1578250A128A11831203135D08831628
:100438000313CC00831203135C0883160313CB0049
:10044800831203135B0883160313CA008312031372
:100458005A0883160313C9004C08F5004B08F4002A
:100468004A08F3004908F2004130F9002030F8004A
:100478000030F7000030F6000A128A153B220A12F3
:100488008A11031C482A492A592A3F308316031324
:10049800CC008030CB000030CA000030C9000130E9
:1004A800D9070318DA0A0030DA0783160313DA1FAC
:1004B8005E2A5F2AC42A303083120313EE008316A3
:1004C80003134D088400831203136E0883138000FE
:1004D8000130EE006E0883160313CD072E30831209
:1004E8000313EE00831603134D08840083120313CD
:1004F8006E0880000130EE006E0883160313CD07E6
:10050800D61F872A882A902A55085902D9005608E2
:10051800031C560A5A02DA00FF30D700FF30D80011
:10052800AE2A303083120313EE00831603134D08EE
:100538008400831203136E08831380000130EE00D9
:100548006E0883160313CD07FF30D7070318D80AA0
:10055800FF30D8075A08803A83120313EE00831637
:1005680003135808803A831203136E02031DC02A2E
:100578008316031357085902031CC32AC42A952A51
:1005880083160313D701D8018B2B831603134C084A
:10059800F5004B08F4004A08F3004908F2000A1273
:1005A8008A15BF210A128A11730883160313D00013
:1005B8007208CF004F08303E83120313EE008316F3
:1005C80003134D088400831203136E0883138000FD
:1005D8000130EE006E0883160313CD075A0858063B
:1005E800031DF82A59085706031DFB2AFC2A0E2B5F
:1005F8002E3083120313EE00831603134D08840074
:10060800831203136E0880000130EE006E08831613
:100618000313CD074F08F2005008F3000030F31B16
:10062800FF30F400F50001300A128A15DF220A12A1
:100638008A11750883160313D4007408D30073084D
:10064800D2007208D1005408C4005308C3005208ED
:10065800C2005108C1004C08C8004B08C7004A082E
:10066800C6004908C5000A128A15BA200A128A115A
:10067800831603134408CC004308CB004208CA0081
:100688004108C900413083120313A9002030A80093
:100698000030A7000030A600831603134C0883120D
:1006A8000313AD00831603134B0883120313AC0026
:1006B800831603134A0883120313AB00831603132C
:1006C800490883120313AA000A128A11A8230A12DE
:1006D8008A1183120313290883160313CC0083128B
:1006E8000313280883160313CB0083120313270868
:1006F80083160313CA0083120313260883160313F1
:10070800C9000130D7070318D80A0030D80758089D
:10071800803A83120313EE00831603135608803AB7
:10072800831203136E02031D9D2B831603135508B2
:100738005702031CA02BA12BC92A831603134D08AB
:100748008400831380010800831203132908803969
:10075800AE002E08B3002908AE002E07AF002F0800
:10076800B900A81FB82BB92BBA2B391439080319AB
:10077800BE2BBF2BCE2B390A031DC32BC42BCC2B6E
:100788000030A9000030A8000030A7000030A60003
:10079800A817D62B0030A9000030A8000030A70009
:1007A8000030A6002D088039AE002E08B3062D08AB
:1007B800AE002E07AF002F08B400AC1FE42BE52BCA
:1007C800E62B341434080319EA2BEB2BFA2B340AE2
:1007D800031DEF2BF02BF82B0030AD000030AC00E0
:1007E8000030AB000030AA00AC17022C0030AD007E
:1007F8000030AC000030AB000030AA003408031908
:10080800062C072C0C2C3908031D0B2C0C2C152C32
:100818000030A9000030A8000030A7000030A60072
:10082800082F2608AE002E08F2002C080A128A119A
:10083800C9270A128A11730883120313BF007208AA
:10084800BE003E08AE00AF01B001B1013108B800EA
:100858003008B7002F08B6002E08B5003F08AE00D4
:10086800AF01B001B1013108BD003008BC002F084C
:10087800BB002E08BA002708AE002E08F2002B088D
:100888000A128A11C9270A128A11730883120313DC
:10089800BF007208BE003E08AE00AF01B001B10152
:1008A8002E08B5072F0803110318013E03195D2C04
:1008B800B607300803110318013E0319642CB70763
:1008C800310803110318013E03196B2CB8073F08C0
:1008D800AE00AF01B001B1012E08BA072F0803110D
:1008E8000318013E0319792CBB07300803110318BC
:1008F800013E0319802CBC07310803110318013E7F
:100908000319872CBD072808AE002E08F2002A0814
:100918000A128A11C9270A128A117308831203134B
:10092800BF007208BE003E08AE00AF01B001B101C1
:100938002E08B5072F0803110318013E0319A52C2B
:10094800B607300803110318013E0319AC2CB7078A
:10095800310803110318013E0319B32CB8073F08E7
:10096800AE00AF01B001B1012E08BA072F0803117C
:100978000318013E0319C12CBB07300803110318E3
:10098800013E0319C82CBC07310803110318013EA6
:100998000319CF2CBD070830AE000310B50DB60DF6
:1009A800B70DB80DAE0BD12C2708AE002E08F200FB
:1009B8002A080A128A11C9270A128A11730883128F
:1009C8000313BF007208BE003E08AE003F08AF0028
:1009D800B001B1012E08B5072F0803110318013E15
:1009E8000319F72CB607300803110318013E031941
:1009F800FE2CB707310803110318013E0319052D12
:100A0800B8072608AE002E08F2002B080A128A1131
:100A1800C9270A128A11730883120313BF007208C8
:100A2800BE003E08AE003F08AF00B001B1012E087D
:100A3800B5072F0803110318013E0319242DB60723
:100A4800300803110318013E03192B2DB70731088D
:100A580003110318013E0319322DB8070830AE0000
:100A68000310B50DB60DB70DB80DAE0B342D260815
:100A7800AE002E08F2002A080A128A11C9270A12A3
:100A88008A11730883120313BF007208BE003E0860
:100A9800AE003F08AF00B001B1012E08B5072F081E
:100AA80003110318013E03195A2DB6073008031124
:100AB8000318013E0319612DB70731080311031804
:100AC800013E0319682DB8072708AE002E08F2006A
:100AD8002C080A128A11C9270A128A11730883126C
:100AE8000313BF007208BE003E08AE003F08AF0007
:100AF800B001B1012E08BA072F0803110318013EEF
:100B08000319872DBB07300803110318013E031989
:100B18008E2DBC07310803110318013E0319952DCA
:100B2800BD072808AE002E08F2002B080A128A1109
:100B3800C9270A128A11730883120313BF007208A7
:100B4800BE003E08AE003F08AF00B001B1012E085C
:100B5800BA072F0803110318013E0319B42DBB0768
:100B6800300803110318013E0319BB2DBC073108D7
:100B780003110318013E0319C22DBD072808AE0052
:100B88002E08F2002C080A128A11C9270A128A11A3
:100B9800730883120313BF007208BE003E08AE003C
:100BA8003F08AF00B001B10108300310AE0DAF0D22
:100BB800B00DB10DFF3E031DD92D2E08BA072F0821
:100BC80003110318013E0319EA2DBB07300803116E
:100BD8000318013E0319F12DBC073108031103184E
:100BE800013E0319F82DBD073508AE003608AF00E1
:100BF8003708B0003808B10018300310B10CB00C39
:100C0800AF0CAE0CFF3E031D012E2E08BA072F08AD
:100C180003110318013E0319122EBB0730080311F4
:100C28000318013E0319192EBC07310803110318D4
:100C3800013E0319202EBD070830AE000310B50D84
:100C4800B60DB70DB80DAE0B222E39083407AE001D
:100C5800AF01AF0D2E08823EBE002F080318013EDB
:100C6800FF3EBF00542E0130AE000310BA0DBB0D7D
:100C7800BC0DBD0DAE0B392EB81F432E442E452E8C
:100C88003A140130AE000310B50DB60DB70DB80D0E
:100C9800AE0B472EFF30BE070318BF0AFF30BF0751
:100CA800BC1F572E582E372EB401B81F5C2E5D2E50
:100CB800792EFF303505AE00FF303605AF00FF3026
:100CC8003705B0007F303805B100310830042F04F3
:100CD8002E040319702E712E742EB401B40A792EC5
:100CE8003A1C772E782E792E712E340803197D2E12
:100CF8007E2EAF2E0130BA07003003180130BB0733
:100D0800003003180130BC07003003180130BD075C
:100D18003D1C8F2E902EAF2E3A08AE003B08AF0038
:100D28003C08B0003D08B1000130B200310DB10CF3
:100D3800B00CAF0CAE0CB20B9A2E3108BD003008C7
:100D4800BC002F08BB002E08BA000130BE070318EC
:100D5800BF0A0030BF073F08803AFF0080307F029B
:100D6800031DB82EFF303E02031CBB2EBC2EC72E1F
:100D78007F3083120313BD008030BC000030BB00FD
:100D88000030BA00FC2E831203133F08803AFF009C
:100D980080307F02031DD22E01303E020318D52E6B
:100DA800D62EE22E003083120313BD000030BC00A3
:100DB8000030BB000030BA00B301FC2E83120313CD
:100DC8003E08AE002E08B900FF30BA05FF30BB055B
:100DD8007F30BC050030BD05391CF32EF42EF52EEE
:100DE800BC173908AE0003102E0CAF002F08BD0049
:100DF8003308AE002E08BD043D08A9003C08A80031
:100E08003B08A7003A08A60008000A128A15142011
:100E18000A128A110A128A1562210A128A110A1202
:100E28008A11F2270A128A11F601F60A01300A120B
:100E38008A150A210A128A110130F7008030F80059
:100E48000A128A1574200A128A11831203131014C5
:100E58000715831603132403031D332F342F932FF1
:100E68003F0840040319392F3A2F922F403083123C
:100E78000313A9008030A8000030A7000030A600A6
:100E8800831603133F08F2004008F300F401F5014C
:100E980000300A128A15DF220A128A117508831295
:100EA8000313AD007408AC007308AB007208AA0005
:100EB8000A128A11A8230A128A1183120313290815
:100EC800C3002808C2002708C1002608C0004A300D
:100ED800C700F430C6002430C5000030C4000A1230
:100EE8008A159B230A128A11831203134308831657
:100EF8000313A30083120313420883160313A200EB
:100F080083120313410883160313A10083120313EA
:100F1800400883160313A000BF01C001A4012308E1
:100F2800CC002208CB002108CA002008C900AB3039
:100F3800DB005B08CD000230DC005C08CE000A1242
:100F48008A111E200A128A11053083160313DB004A
:100F58005B08F60002300A128A150A210A128A1161
:100F6800AB30F7000030F8000A128A1574200A1214
:100F78008A11013083160313DB005B088312031305
:100F880088072D2F0A128A110C2883120313A40034
:100F9800A001A1017208F400F5017408A200750807
:100FA800A300241CD82FD92FDF2F2208A00703184D
:100FB800A10A2308A10701300310A20DA30DFF3ECB
:100FC800031DE02F0310A40C2408031DEC2FED2FA4
:100FD800D52F2108F3002008F200080000300A1677
:100FE8008A11A0270A128A1101300A168A11A0272D
:060FF8000A128A11080034
:1010020064008001840A04060319003404060228DD
:101012007508740473047204031910281128132824
:101022008030F506080083160317880189018316AC
:10103200031385018801890186010230870083122A
:101042000313850186018701880189018316031331
:101052000F178F160F160F148B170B170D14831201
:1010620003130D100914891490018F018E010530AC
:101072009D000800F60076080F39F3007308F400AB
:101082007608F039F3007308F5008312031306168D
:101092007508F30004300310F30CFF3E031D4C28C7
:1010A20073080A168A11BA270A128A1583120313C1
:1010B20086161A30F300F30B5C2800008312031328
:1010C200861274080A168A11BA270A128A1583121E
:1010D200031386161A30F300F30B6D2800008312F7
:1010E20003138612080083120313A301A4019D288F
:1010F20023087707A1007808A0000318A00AA31FFD
:101102008328A003831203132008A2002208FF00F1
:10111200210884000A168A1100200A128A150A126E
:101122008A153B200A128A15013083120313A30782
:101132000318A40A0030A40723087707A10078083F
:10114200A0000318A00AA31FA728A0038312031359
:101152002008A2002208FF00210884000A168A1132
:1011620000200A128A15003A031DB828B9287928E6
:101172000800803083160313C40648088312031341
:10118200DD0083160313470883120313DC00831662
:101192000313460883120313DB0083160313450867
:1011A20083120313DA008316031344088312031312
:1011B200E10083160313430883120313E00083162E
:1011C2000313420883120313DF008316031341083B
:1011D20083120313DE000A128A1578250A128A1571
:1011E200831203135D0883160313C40083120313CF
:1011F2005C0883160313C300831203135B08831670
:101202000313C200831203135A0883160313C10087
:10121200080083120313A0002003031D11291229C1
:10122200372976087F3EF7007708A3002308F700E6
:1012320004300310F70CFF3E031D1A297708F8004B
:101242007808A10023080F39F7007708A2002108C7
:101252000A168A11A0270A128A158312031322087A
:101262000A168A11A0270A128A156129023020065D
:10127200031D3C293D2961297608BF3EF700770806
:10128200A3002308F70004300310F70CFF3E031DF0
:1012920045297708F8007808A10023080F39F700DC
:1012A2007708A20021080A168A11A0270A128A15B5
:1012B2008312031322080A168A11A0270A128A151A
:1012C200080000300A168A11BA270A128A15343029
:1012D200F700F130F600F60B6C29F70B6C29712937
:1012E20003300A168A11A0270A128A150D30F70058
:1012F200FB30F600F60B7B29F70B7B2980290330A4
:101302000A168A11A0270A128A151D30F700913099
:10131200F600F60B8A29F70B8A2903300A168A117E
:10132200A0270A128A1502300A168A11A0270A1269
:101332008A1502300A168A11A0270A128A15083065
:101342000A168A11A0270A128A1500300A168A1173
:10135200A0270A128A150C300A168A11A0270A122F
:101362008A1500300A168A11A0270A128A15063039
:101372000A168A11A0270A128A1508000310740D92
:10138200750D83120313A0002008F7007708031DD0
:10139200CB29CC29D5290030F5000030F4000030EB
:1013A200F3000030F2003A2A7208A0007308A1008C
:1013B2007408A2007508A3001F300310A30CA20C2E
:1013C200A10CA00CFF3E031DDE292008A400240866
:1013D200F600F417FF30F205FF30F305FF30F40595
:1013E2000030F5059630F702F71FF829F929132A7C
:1013F2007708803A973E0318FF29002A012ACC2950
:1014020001300310F50CF40CF30CF20CFF3E031D3B
:10141200022A0130A0002008F707031D112A122A10
:10142200012A2A2A20307702031C182A192A252A7F
:10143200CC290130A0000310F20DF30DF40DF50DCF
:10144200A00B1C2A0130F7027708031D292A2A2A39
:101452001A2A760803192E2A2F2A3A2AF209F309A0
:10146200F409F509F20A0319F30A0319F40A031934
:10147200F50A08000030720583120313A000003041
:101482007305A10080307405A2007F307505A300AA
:101492002308220421042004031D502A512A592A18
:1014A2000030F5000030F4000030F3000030F200AC
:1014B20000307605A00000307705A1008030780565
:1014C200A2007F307905A30023082204210420040E
:1014D200031D6C2A6D2A752A0030F9000030F800CD
:1014E2000030F7000030F600F51F782A792A9D2A8D
:1014F2000030A0000030A1000030A2008030A30024
:101502007208A0027308031C730F882A892AA10299
:101512007408031C740F8E2A8F2AA2027508031CFA
:10152200750F942A952AA3022308F5002208F400D5
:101532002108F3002008F200F91FA02AA12AC52AD7
:101542000030A0000030A1000030A2008030A300D3
:101552007608A0027708031C770FB02AB12AA102ED
:101562007808031C780FB62AB72AA2027908031C4E
:10157200790FBC2ABD2AA3022308F9002208F80029
:101582002108F7002008F6008030F5068030F906C1
:1015920079087502031DD72A78087402031DD72A19
:1015A20077087302031DD72A760872020318DA2A13
:1015B200DB2ADD2A0310DE2A031408008312031338
:1015C200A00020080319E62AE72AFB2AF51FEA2AC7
:1015D200EB2AFB2A7209A2007309A3007409A40072
:1015E2007509A500A20A0319A30A0319A40A03197B
:1015F200A50A032B7508A5007408A4007308A300AC
:101602007208A2007508740473047204031D0A2B85
:101612000B2B142B0030F5000030F4000030F300E7
:101622000030F2009A2B9630F6007608A100262BA5
:101632000130F6007608A10701300310A50CA40CB6
:10164200A30CA20CFF3E031D1E2BFE302505031D1D
:101652002B2B2C2B192B482B0130F6007608A107D7
:101662000130A207003003180130A307003003182D
:101672000130A407003003180130A5070130031020
:10168200A50CA40CA30CA20CFF3E031D402BFF30A3
:101692002505031D4D2B4E2B2D2B5A2B0130A1025C
:1016A2000130F6000310A20DA30DA40DA50DF60B3B
:1016B200532BA41B5D2B5E2B642B023021020318DB
:1016C200632B642B4F2B2118672B682B702BFF3059
:1016D200A205FF30A3057F30A405FF30A505031046
:1016E200A10C2108F600F701F801F90118300310E6
:1016F200F60DF70DF80DF90DFF3E031D782B760858
:10170200A2047708A3047808A4047908A504200891
:1017120003198C2B8D2B922BF51F902B912B922B37
:10172200A5172508F5002408F4002308F300220871
:10173200F20008008312031347088039C8004808E2
:10174200D1004708C8004807C9004908D800C61F89
:10175200AB2BAC2BAD2B581458080319B12BB22B61
:10176200C22B580A031DB62BB72BBF2B0030C70064
:101772000030C6000030C5000030C400C617C701E3
:10178200CA2B0030C7000030C6000030C500003050
:10179200C40043088039C8004808D1064308C8007D
:1017A2004807C9004908D900C21FD82BD92BDA2B08
:1017B200591459080319DE2BDF2BEF2B590A031D8D
:1017C200E32BE42BEC2B0030C3000030C2000030CE
:1017D200C1000030C000C217C301F72B0030C300A4
:1017E2000030C2000030C1000030C0004308420493
:1017F20041044004031DFE2BFF2B182C0030C700B0
:101802000030C6000030C5000030C4008030C6047D
:101812007F30C7045108C8004808C7044708C300FE
:101822004608C2004508C1004408C000772D580888
:10183200031D1C2C1D2C262C0030C3000030C200BE
:101842000030C1000030C000772D5808C800C9011F
:101852004908CB0059084802CA00031CCB034A08B6
:101862007F3ED2004B080318013E003ED3004708DA
:10187200D0004608CF004508CE004408CD00003015
:10188200C7000030C6000030C5000030C400003080
:10189200D7000030D6000030D5000030D400D90186
:1018A2009C2C59080319562C572C772C0130C80050
:1018B2000310CD0DCE0DCF0DD00DC80B592C01301C
:1018C200C8000310C40DC50DC60DC70DC80B622C90
:1018D200D71F6C2C6D2C6E2C44140130C8000310E1
:1018E200D40DD50DD60DD70DC80B702C4308500260
:1018F200031D852C42084F02031D852C41084E0210
:10190200031D852C40084D02031C882C892C982C21
:1019120057174008CD024108031C410FCE0242086E
:10192200031C420FCF024308031C430FD0020130B5
:10193200C8004808D9071A305902031CA12CA22C4E
:10194200522C50084F044E044D040319A92CAA2C02
:10195200C92C5414C92C0130C8000310C40DC50D84
:10196200C60DC70DC80BAE2CD71FB82CB92CBA2C7C
:1019720044140130C8000310D40DD50DD60DD70D77
:10198200C80BBC2CFF30D2070318D30AFF30D30791
:10199200C61FCC2CCD2CAC2CD901D71FD12CD22CCC
:1019A200EE2CFF305405C800FF305505C900FF304A
:1019B2005605CA007F305705CB004B084A0449043C
:1019C20048040319E52CE62CE92CD901D90AEE2C9E
:1019D200441CEC2CED2CEE2CE62C59080319F22CAD
:1019E200F32C242D0130C407003003180130C50741
:1019F200003003180130C607003003180130C70752
:101A0200471C042D052D242D4408C8004508C90093
:101A12004608CA004708CB000130CC004B0DCB0C66
:101A2200CA0CC90CC80CCC0B0F2D4B08C7004A08B6
:101A3200C6004908C5004808C4000130D20703188F
:101A4200D30A0030D3075308803AFF0080307F0268
:101A5200031D2D2DFF305202031C302D312D3F2D41
:101A6200FF3083120313D2000030D3000030C700CE
:101A72000030C6000030C5000030C40083120313DA
:101A82005308803AFF0080307F02031D4A2D013047
:101A9200520203184D2D4E2D5B2D83120313D201DA
:101AA200D3010030C7000030C6000030C50000304E
:101AB200C400D101831203135208C8004808D80099
:101AC200581C642D652D672DC6176B2D7F30C800FD
:101AD2004808C6055808C8000310480CC900490840
:101AE200C7005108C8004808C7040F2C0800831219
:101AF20003135D088039E2006208EA005D08E20033
:101B02006207E3006308EC00DC1F882D892D8A2D13
:101B12006C146C0803198E2D8F2D9F2D6C0A031DDA
:101B2200932D942D9C2D0030DD000030DC00003020
:101B3200DB000030DA00DC17DD01A72D0030DD000C
:101B42000030DC000030DB000030DA006108803950
:101B5200E2006208EB006B086A060319B12DB22D90
:101B6200B32D6A176108E2006207E3006308EB0025
:101B7200E01FBC2DBD2DBE2D6B146B080319C22DA9
:101B8200C32DD32D6B0A031DC72DC82DD02D0030B8
:101B9200E1000030E0000030DF000030DE00E0173E
:101BA200E101DB2D0030E1000030E0000030DF0019
:101BB2000030DE006C086B020318E02DE12D252EAB
:101BC2006A1FE42DE52DE92D8030E2006208EA0665
:101BD2006C08E2006208ED006B08E2006208EC00AB
:101BE2006D08E2006208EB005A08E2006208ED00AC
:101BF2005E08E2006208DA006D08E2006208DE00B8
:101C02005B08E2006208ED005F08E2006208DB00A8
:101C12006D08E2006208DF005C08E2006208ED0085
:101C22006008E2006208DC006D08E2006208E00081
:101C32005D08E2006208ED006108E2006208DD0072
:101C42006D08E2006208E100ED016B08E200E301C9
:101C52006308E5006C086202E400031CE503650802
:101C6200803AFF0080307F02031D392E1A30640251
:101C7200031C3C2E3D2E7A2E831203135D085C0456
:101C82005B045A04031D462E482E0130492E0030B3
:101C9200E2006208ED000030DD000030DC000030C0
:101CA200DB000030DA006B08E2006208EC00822EF2
:101CB2006D1C5C2E5D2E662E6D08E2000310620C18
:101CC2000138E3006308ED00682E0310ED0C5A1C86
:101CD2006B2E6C2E6D2EED170130E2005D0DDD0CCA
:101CE200DC0CDB0CDA0CE20B6F2E0130E200620836
:101CF200EC07831203136B086C02031C812E822EE5
:101D0200592E6A1B852E862ED12E6C08031D8A2E13
:101D12008B2E942E0030DD000030DC000030DB0022
:101D22000030DA00FF2F5E08DA075F08031103189C
:101D3200013E03199D2EDB07600803110318013EC3
:101D42000319A42EDC07610803110318013E0319CD
:101D5200AB2EDD075D1CAE2EAF2E852F6D1CB22E75
:101D6200B32EBC2E6D08E2000310620C0138E300B2
:101D72006308ED00BE2E0310ED0C5A1CC12EC22EBC
:101D8200C32EED170130E2005D0DDD0CDC0CDB0C27
:101D9200DA0CE20BC52E0130E2006208EC07852F57
:101DA2005D08803AFF006108803A7F02031DE32E3E
:101DB20060085C02031DE32E5F085B02031DE32E35
:101DC2005E085A020318E62EE72E3F2FFF30E2008C
:101DD200FF30E300FF30E400FF30E5005E08E6007C
:101DE2005F08E7006008E8006108E9005A08E602B7
:101DF2005B08031C5B0FFE2EFF2EE7025C08031C30
:101E02005C0F042F052FE8025D08031C5D0F0A2FEB
:101E12000B2FE9026608E20767080318670F122F03
:101E2200132FE30768080318680F182F192FE40708
:101E320069080318690AE5076508DD006408DC0023
:101E42006308DB006208DA008030E2006208EA061A
:101E5200ED09ED0A6D08031D2F2F302F4D2F013094
:101E6200DA07003003180130DB07003003180130B5
:101E7200DC07003003180130DD074D2F5E08DA025F
:101E82005F08031C5F0FDB026008031C600FDC02AB
:101E92006108031C610FDD025D085C045B045A04E7
:101EA200031D542F552F812F6D08031D592F5A2FB3
:101EB200812F0030DD000030DC000030DB0000301C
:101EC200DA00FF2F0130E2000310DA0DDB0DDC0D2A
:101ED200DD0DE20B652FED1F6F2F702F712F5A143E
:101EE2006D1C742F752F782F0314ED0D7A2F0310AC
:101EF200ED0D6C0803197E2F7F2F812F0130EC022C
:101F0200DC1F842F852F632FEB01ED1F892F8A2F72
:101F1200982F6D087F3903198F2F902F932FEB0184
:101F2200EB0A982F5A1C962F972F982F902F6B08F9
:101F320003199C2F9D2FD12F0130DA07003003188F
:101F42000130DB07003003180130DC0700300318D2
:101F52000130DD075D1CAE2FAF2FD12F5A08E200F2
:101F62005B08E3005C08E4005D08E5000130E60080
:101F7200650DE50CE40CE30CE20CE60BB92F6508E9
:101F8200DD006408DC006308DB006208DA006C0A2A
:101F92000319CC2FCD2FD12F0130E2006208EC07BC
:101FA2006C0A0319D52FD62FDB2F6C08031DDA2FED
:101FB200DB2FE92F0030DD000030DC000030DB00D9
:101FC2000030DA006C08031DE72FE82FE92FEA0141
:101FD2006C1CEC2FED2FEF2FDC17F32F7F30E2007C
:101FE2006208DC056C08E2000310620CE30063087F
:101FF200DD00EA1FFD2FFE2FFF2FDD170800FF1B5C
:102002000A2883137F1883170008840A0319FF0A1A
:10201200080010308A000408840A8207003446341B
:10202200523445344334553445344E3443344934C0
:042032004134003401
:102F4000F50083120313061275080A168A11BA27B0
:102F50000A168A118312031386160B30F4006230AE
:102F6000F300F30BB12FF40BB12F00008312031306
:102F700086120800F200721CBE2FBF2FC32F8312CF
:102F800003130614C62F831203130610F21CC92F55
:102F9000CA2FCC2F8614CD2F8610721DD02FD12F83
:102FA000D32F0615D42F0611F21DD72FD82FDA2FC5
:102FB0008615DB2F861108008B13831203130D1C5B
:102FC000E22FE32FF82F0130850010101C08831624
:102FD0000313C000831203131B0883160313BF00DF
:102FE000A401A40A831203138E018F010D10101483
:102FF0008B1771088A00700E8300FE0E7E0E09008A
:04400E00D520FF3F7B
:00000001FF
