:020000040000FA
:060000000A128A110C280F
:10000800FE00030EF7000A08F8000A128A15FA2EF5
:100018000A128A110F288313A830FD000D30FE0044
:10002800BD30FF00A03084000A128A15EC250A12A0
:100038008A116930FD000D30FE00C530FF006130C7
:1000480084000A128A15EC250A128A11D501D601F4
:10005800D701D801D901DA01DB01DC01DD01DE01BC
:10006800DF01E00183010A128A119B2B831203131B
:1000780031088039B6003608BB003108B6003607AB
:10008800B7003708C100B01F4A284B284C28411434
:1000980041080319502851286028410A031D552892
:1000A80056285E280030B1000030B0000030AF00A4
:1000B8000030AE00B01768280030B1000030B00042
:1000C8000030AF000030AE0035088039B600360881
:1000D800BB063508B6003607B7003708C000B41F9E
:1000E8007628772878284014400803197C287D282A
:1000F8008C28400A031D812882288A280030B500F0
:100108000030B4000030B3000030B200B4179428B7
:100118000030B5000030B4000030B3000030B20049
:1001280040080319982899289E284108031D9D28EE
:100138009E28A7280030B1000030B0000030AF0082
:100148000030AE009A2B2E08B6003608A0003408FE
:100158000A128A15D1260A128A118312031321085A
:10016800C7002008C6004608B600B701B801B901A3
:100178003908BF003808BE003708BD003608BC0083
:100188004708B600B701B801B9013908C5003808F1
:10019800C4003708C3003608C2002F08B600360866
:1001A800A00033080A128A15D1260A128A1183126E
:1001B80003132108C7002008C6004608B600B70187
:1001C800B801B9013608BC07370803110318013E06
:1001D8000319EF28BD07380803110318013E031956
:1001E800F628BE07390803110318013E0319FD2834
:1001F800BF074708B600B701B801B9013608C207FA
:10020800370803110318013E03190B29C3073808DF
:1002180003110318013E03191229C40739080311F1
:100228000318013E03191929C5073008B600360816
:10023800A00032080A128A15D1260A128A118312DE
:1002480003132108C7002008C6004608B600B701F6
:10025800B801B9013608BC07370803110318013E75
:1002680003193729BD07380803110318013E03197C
:100278003E29BE07390803110318013E0319452911
:10028800BF074708B600B701B801B9013608C20769
:10029800370803110318013E03195329C307380807
:1002A80003110318013E03195A29C4073908031119
:1002B8000318013E03196129C5070830B600031069
:1002C800BC0DBD0DBE0DBF0DB60B63292F08B600C2
:1002D8003608A00032080A128A15D1260A128A1195
:1002E800831203132108C7002008C6004608B60079
:1002F8004708B700B801B9013608BC073708031129
:100308000318013E03198929BD073808031103188A
:10031800013E03199029BE07390803110318013E4D
:1003280003199729BF072E08B6003608A00033081E
:100338000A128A15D1260A128A1183120313210878
:10034800C7002008C6004608B6004708B700B8012D
:10035800B9013608BC07370803110318013E031911
:10036800B629BD07380803110318013E0319BD2932
:10037800BE07390803110318013E0319C429BF0732
:100388000830B6000310BC0DBD0DBE0DBF0DB60B79
:10039800C6292E08B6003608A00032080A128A15A7
:1003A800D1260A128A11831203132108C7002008D4
:1003B800C6004608B6004708B700B801B9013608B4
:1003C800BC07370803110318013E0319EC29BD07C0
:1003D800380803110318013E0319F329BE07390829
:1003E80003110318013E0319FA29BF072F08B600A5
:1003F8003608A00034080A128A15D1260A128A1172
:10040800831203132108C7002008C6004608B60057
:100418004708B700B801B9013608C2073708031101
:100428000318013E0319192AC307380803110318D2
:10043800013E0319202AC407390803110318013E95
:100448000319272AC5073008B6003608A000330864
:100458000A128A15D1260A128A1183120313210857
:10046800C7002008C6004608B6004708B700B8010C
:10047800B9013608C207370803110318013E0319EA
:10048800462AC307380803110318013E03194D2AE9
:10049800C407390803110318013E0319542AC50774
:1004A8003008B6003608A00034080A128A15D1268A
:1004B8000A128A11831203132108C7002008C600F4
:1004C8004608B6004708B700B801B901083003105C
:1004D800B60DB70DB80DB90DFF3E031D6B2A3608D2
:1004E800C207370803110318013E03197C2AC30702
:1004F800380803110318013E0319832AC407390871
:1005080003110318013E03198A2AC5073C08B600DF
:100518003D08B7003E08B8003F08B900183003107E
:10052800B90CB80CB70CB60CFF3E031D932A36085D
:10053800C207370803110318013E0319A42AC30789
:10054800380803110318013E0319AB2AC4073908F8
:1005580003110318013E0319B22AC5070830B60073
:100568000310BC0DBD0DBE0DBF0DB60BB42A41085E
:100578004007B600B701B70D3608823EC6003708F7
:100588000318013EFF3EC700E62A0130B6000310FB
:10059800C20DC30DC40DC50DB60BCB2ABF1FD52A7E
:1005A800D62AD72A42140130B6000310BC0DBD0D5F
:1005B800BE0DBF0DB60BD92AFF30C6070318C70AF0
:1005C800FF30C707C41FE92AEA2AC92AC001BF1F8A
:1005D800EE2AEF2A0B2BFF303C05B600FF303D0515
:1005E800B700FF303E05B8007F303F05B900390835
:1005F8003804370436040319022B032B062BC001D9
:10060800C00A0B2B421C092B0A2B0B2B032B40086F
:1006180003190F2B102B412B0130C2070030031890
:100628000130C307003003180130C4070030031835
:100638000130C507451C212B222B412B4208B6004F
:100648004308B7004408B8004508B9000130BA00AB
:10065800390DB90CB80CB70CB60CBA0B2C2B3908E1
:10066800C5003808C4003708C3003608C200013086
:10067800C6070318C70A0030C7074708803AFF00B3
:1006880080307F02031D4A2BFF304602031C4D2B8E
:100698004E2B592B7F3083120313C5008030C400C2
:1006A8000030C3000030C2008E2B831203134708AA
:1006B800803AFF0080307F02031D642B0130460220
:1006C8000318672B682B742B003083120313C500A3
:1006D8000030C4000030C3000030C200BB018E2BC4
:1006E800831203134608B6003608C100FF30C2055E
:1006F800FF30C3057F30C4050030C505411C852B7C
:10070800862B872BC4174108B6000310360CB70098
:100718003708C5003B08B6003608C5044508B100CF
:100728004408B0004308AF004208AE0008000A12AF
:100738008A1530270A128A110A128A15B2270A1254
:100748008A110A128A15CD250A128A1183120313F7
:10075800A401A40A01300A128A1141270A128A1137
:1007680001300A128A15A8260A128A118312031365
:100778009F14013083120313A0000030A100560813
:10078800A3005508A2005F30D3005308A4000A1242
:100798008A1199270A128A11831203135F08A0008D
:1007A8006008A100A201A30100300A128A11952550
:1007B8000A128A11831203132308B5002208B40011
:1007C8002108B3002008B2003F30B100FB30B00070
:1007D8000230AF000C30AE000A128A113A200A1219
:1007E8008A11831203133108CB003008CA002F087E
:1007F800C9002E08C8000A128A1151260A128A1145
:10080800831203134908E0004808DF006008A900C4
:100818005F08A8000A128A11CD260A128A118312CB
:100828000313A401A40A02300A128A1141270A12EA
:100838008A11831203135C080A128A1517260A12F2
:100848008A112E300A128A1517260A128A11831263
:1008580003135B080A128A1517260A128A118312D3
:1008680003135A080A128A1517260A128A118312C4
:100878000313D9015908613E8400831300089900C5
:100888000D3083120313D400FB30D300D30B4A2C52
:10089800D40B4A2C013083120313D3005308D90711
:1008A8000A305902031C592C5A2C3E2C5C080A1297
:1008B8008A11E8270A128A112E300A128A11E827AB
:1008C8000A128A11831203135B080A128A11E82795
:1008D8000A128A11831203135A080A128A11E82786
:1008E8000A128A1176300A128A11E8270A128A1126
:1008F8000D300A128A11E8270A128A1117300A12D3
:100908008A15A8260A128A11003083120313A00040
:10091800A1005608A3005508A2005D30D300530873
:10092800A4000A128A1199270A128A118312031342
:100938005D08A0005E08A100A201A30100300A1210
:100948008A1195250A128A11831203132308B50008
:100958002208B4002108B3002008B2003F30B100DB
:10096800FB30B0000230AF000C30AE000A128A1122
:100978003A200A128A11831203133108CB00300877
:10098800CA002F08C9002E08C8000A128A11512669
:100998000A128A11831203134908DE004808DD0091
:1009A8005E08A9005D08A8000A128A11CD260A125D
:1009B8008A11831203135C080A128A1517260A1271
:1009C8008A112E300A128A1517260A128A118312E2
:1009D80003135B080A128A1517260A128A11831252
:1009E80003135A080A128A1517260A128A11123096
:1009F8000A128A15A8260A128A1183120313D9012A
:100A08005908A03E84008313000899000D30831212
:100A18000313D400FB30D300D30B102DD40B102DAF
:100A2800013083120313D3005308D9070A3059023F
:100A3800031C1F2D202D042D5C080A128A11E8279B
:100A48000A128A112E300A128A11E8270A128A110C
:100A5800831203135B080A128A11E8270A128A1103
:100A6800831203135A080A128A11E8270A128A11F4
:100A780076300A128A11E8270A128A110D300A12F2
:100A88008A11E8270A128A11632D0130D30053080E
:100A9800D80764305806031D522D532D542DD80104
:100AA800D701752D5808031D5A2D5B2D602D633015
:100AB800D3005308D800542D0130D802542D831286
:100AC80003135708D300D4015408003A03196D2DB5
:100AD800752D53082B3A0319492D063A0319562D3B
:100AE800752D5808D300D4015308A8005408A9004C
:100AF8000A128A11CD260A128A11831203135B087F
:100B08000A128A1517260A128A11831203135A0821
:100B18000A128A1517260A128A11BD2B0A128A117F
:100B28000C2883120313A800280803199C2D9D2D57
:100B3800B12DA31FA02DA12DB12D2009AA00210997
:100B4800AB002209AC002309AD00AA0A0319AB0ABD
:100B58000319AC0A0319AD0AB92D2308AD00220800
:100B6800AC002108AB002008AA00230822042104B5
:100B78002004031DC02DC12DCA2D0030A300003054
:100B8800A2000030A1000030A000502E9630A40032
:100B98002408A900DC2D0130A4002408A90701308D
:100BA8000310AD0CAC0CAB0CAA0CFF3E031DD42DEE
:100BB800FE302D05031DE12DE22DCF2DFE2D013038
:100BC800A4002408A9070130AA070030031801303F
:100BD800AB07003003180130AC07003003180130B0
:100BE800AD0701300310AD0CAC0CAB0CAA0CFF3EEA
:100BF800031DF62DFF302D05031D032E042EE32DB6
:100C0800102E0130A9020130A4000310AA0DAB0D6B
:100C1800AC0DAD0DA40B092EAC1B132E142E1A2EE1
:100C2800023029020318192E1A2E052E29181D2EF6
:100C38001E2E262EFF30AA05FF30AB057F30AC05EF
:100C4800FF30AD050310A90C2908A400A501A601D1
:100C5800A70118300310A40DA50DA60DA70DFF3E82
:100C6800031D2E2E2408AA042508AB042608AC046C
:100C78002708AD0428080319422E432E482EA31F27
:100C8800462E472E482EAD172D08A3002C08A2008B
:100C98002B08A1002A08A0000800031083120313E0
:100CA8004A0D4B0DCC004C08D2005208031D5D2E96
:100CB8005E2E672E0030CB000030CA000030C9001D
:100CC8000030C800CC2E4808CC004908CD004A089E
:100CD800CE004B08CF001F300310CF0CCE0CCD0C2C
:100CE800CC0CFF3E031D702E4C08D0005008D100DC
:100CF800CA17FF30C805FF30C905FF30CA050030E4
:100D0800CB059630D202D21F8A2E8B2EA52E5208E2
:100D1800803A973E0318912E922E932E5E2E013024
:100D28000310CB0CCA0CC90CC80CFF3E031D942E33
:100D38000130CC004C08D207031DA32EA42E932EFD
:100D4800BC2E20305202031CAA2EAB2EB72E5E2ECC
:100D58000130CC000310C80DC90DCA0DCB0DCC0B4A
:100D6800AE2E0130D2025208031DBB2EBC2EAC2E73
:100D780051080319C02EC12ECC2EC809C909CA09A9
:100D8800CB09C80A0319C90A0319CA0A0319CB0AE5
:100D98000800831203132908AD002808AC0064304A
:100DA800A0000030A1002D08A3002C08A2000A1200
:100DB8008A156C270A128A11831203132008AA00C5
:100DC8002A08DC005C08AA00AB012A08A0002B084E
:100DD800A1009C30A200FF30A3000A128A155A26EF
:100DE8000A128A11831203132C082007AC002D085D
:100DF80003182D0A2107AD000A30A0000030A10019
:100E08002D08A3002C08A2000A128A156C270A12C2
:100E18008A11831203132008AA002A08DB005B0842
:100E2800AA00AB012A08A0002B08A100F630A200F6
:100E3800FF30A3000A128A155A260A128A11831251
:100E480003132C082007AC002D0803182D0A2107CE
:100E5800AD002C08AA002A08DA005C08303EAA0077
:100E68002A08DC005B08303EAA002A08DB005A0882
:100E7800303EAA002A08DA00080083120313A700EC
:100E88002703031D482F492F6E2F24087F3EA500F6
:100E98002508AA002A08A50004300310A50CFF3E67
:100EA800031D512F2508A6002608A8002A080F3977
:100EB800A5002508A90028080A128A15FB250A1288
:100EC8008A118312031329080A128A15FB250A12AC
:100ED8008A11982F02302706031D732F742F982F1D
:100EE8002408BF3EA5002508AA002A08A50004304A
:100EF8000310A50CFF3E031D7C2F2508A60026081D
:100F0800A8002A08F039A5002508A90028080A120F
:100F18008A15FB250A128A118312031329080A125B
:100F28008A15FB250A128A110800D22F240884008A
:100F3800220883138000840A230880002008A50063
:100F4800A50DA50D1F082506C33925069F000F30DE
:100F580083120313A500A50BAF2FB22F831203131F
:100F68009F14E72F24088400220883138000840A32
:100F7800230880002008A500A50DA50D1F0825063B
:100F8800C33925069F000F3083120313A500A50B54
:100F9800CB2FCE2F831203139F14E72F8312031333
:100FA8001F0CA500250C0F39A600A7012708003A39
:100FB8000319DF2FE72F2608003A03199A2F013A61
:100FC8000319B62FE72F080083120313A2000C1E83
:100FD800EE2FEF2FFB2F220899000D3083120313F9
:100FE800A100FB30A000A00BF72FA10BF72F0800E2
:1010000008308A000408840A8207003453343134DB
:101010003A34203420342034533432343A342034B7
:10102000203420342034533433343A34003476348A
:0E103000203420342034003476342034003450
:101B6E0083120313A0002008880008005334453464
:101B7E004E3453344F34523432343A345334453471
:101B8E004E3453344F34523431343A3400300A1216
:101B9E008A15FB250A128A1501300A128A15FB25B1
:101BAE000A128A150800831203131E08F200F301AD
:101BBE007208F4007308F5007508F1007408F0005F
:101BCE0008007E088A007F0882000A128A15E8251E
:101BDE000A128A158000840A04087D06031900344F
:101BEE00FF0A0319FE0AEC2D83120313A30009103A
:101BFE0023080A128A15B7250A128A1583120313AF
:101C0E008914063083120313A2002F30A100A10BFA
:101C1E000E2EA20B0E2E132E831203138910080004
:101C2E0083120313A2002208A1002108A300230897
:101C3E00A1002108A400091424080A128A15B72548
:101C4E000A128A158312031389140C30831203139C
:101C5E00A100A10B302E000083120313891008007F
:101C6E00831203131F142008A200A20DA20D1F0839
:101C7E002206C33922069F00203083120313A200CE
:101C8E00A20B472E0000831203131F083F39403862
:101C9E009F00831603139F131F129F120C1783129C
:101CAE0003130C13080083120313A401A501201CB7
:101CBE00612E622E682E2208A4070318A50A230897
:101CCE00A50701300310A20DA30DFF3E031D692EC3
:101CDE0001300310A10CA00CFF3E031D702E200836
:101CEE002104031D7B2E7C2E5E2E2508A1002408C8
:101CFE00A00008008316031318121815181398164F
:101D0E0083120313981718131816831603178711C7
:101D1E00193083160313990001309A0083120313AE
:101D2E00200C83160313031C0C1203180C168312BB
:101D3E000313220C83160313031C8C1203188C1628
:101D4E00080083120313A700A501A601C32E2508C0
:101D5E00270784000A128A1500200A128A150A1211
:101D6E008A1517260A128A15013083120313A50746
:101D7E000318A60A0030A6072508270784000A12B2
:101D8E008A1500200A128A15003A031DCF2ED02E76
:101D9E00AE2E080083120313A800A401A50120088B
:101DAE00A200A3012208A6002308A700281CE02EEB
:101DBE00E12EE72E2608A4070318A50A2708A50773
:101DCE0001300310A60DA70DFF3E031DE82E0310D4
:101DDE00A80C2808031DF42EF52EDD2E2508A100D3
:101DEE002408A00008008B13831203130C1F002F6E
:101DFE00012F0D2F0A128A15DA250A128A1571087B
:101E0E0083120313D6007008D5000C130B1D102F70
:101E1E00112F142F643081000B118C1E172F182FC9
:101E2E00282F2B301A0603191D2F1E2F242F2D306D
:101E3E001A06031D232F242F282F1A08F6007608C2
:101E4E00D7008B1778088A00770E8300FE0E7E0E61
:101E5E0009000330831603178800890103308316A7
:101E6E000313850080308700880189018601831263
:101E7E0003138501860187018801890183160313E7
:101E8E000F178F160F120F14D43081006430831287
:101E9E00031381000030A000A1000A128A15372614
:101EAE000A128A15003083120313A000A10001301C
:101EBE00A2000030A3000A128A1581260A128A1582
:101ECE008B170B178B160B11080083120313A5012A
:101EDE00A601200821040319752F762FAD2FA70117
:101EEE00A70A842F01300310A00DA10DFF3E031D84
:101EFE007A2F0130A4002408A707A11F872F882F4F
:101F0E00792F01300310A50DA60DFF3E031D892F5D
:101F1E0021082302031D952F20082202031C982F4F
:101F2E00992FA02F2008A2022108031CA303A302AD
:101F3E00251401300310A10CA00CFF3E031DA12F90
:101F4E000130A702031DAC2FAD2F882F2608A1004C
:101F5E002508A000080000300A128A15B7250A12BB
:101F6E008A151A3083120313A500F730A400A40BB0
:101F7E00BE2FA50BBE2FC32F30300A128A15FB259C
:101F8E000A128A15073083120313A5007C30A400B1
:101F9E00A40BCF2FA50BCF2F000030300A128A15BD
:101FAE00FB250A128A15413083120313A400A40BD9
:101FBE00DE2FE12F30300A128A15FB250A128A1500
:101FCE003C300A128A15FB250A128A1508300A12AD
:101FDE008A15FB250A128A1501300A128A15FB256D
:101FEE000A128A1506300A128A15FB250A128A155C
:021FFE000800D9
:04400E00D520FF3F7B
:00000001FF
