:020000040000FA
:060000000A128A110E280D
:10000800FE00030EF6000408F7000A08F8000A12BA
:100018008A11BE2E0A128A111128F901FA01FB0170
:10002800FC0183120313D501D601D701D801D901E8
:10003800DA01DB01DC01DD01DE01DF01E001830122
:100048000A128A11882B8312031331088039B600EB
:100058003608BB003108B6003607B7003708C100BC
:10006800B01F3728382839284114410803193D287A
:100078003E284D28410A031D422843284B280030BA
:10008800B1000030B0000030AF000030AE00B01753
:1000980055280030B1000030B0000030AF0000300B
:1000A800AE0035088039B6003608BB063508B600FC
:1000B8003607B7003708C000B41F632864286528CE
:1000C80040144008031969286A287928400A031D42
:1000D8006E286F2877280030B5000030B400003053
:1000E800B3000030B200B41781280030B5000030EA
:1000F800B4000030B3000030B2004008031985286E
:1001080086288B284108031D8A288B2894280030CC
:10011800B1000030B0000030AF000030AE00872BD7
:100128002E08B6003608A00034080A128A11A22741
:100138000A128A11831203132108C7002008C60077
:100148004608B600B701B801B9013908BF00380838
:10015800BE003708BD003608BC004708B600B70126
:10016800B801B9013908C5003808C4003708C30008
:100178003608C2002F08B6003608A00033080A1255
:100188008A11A2270A128A11831203132108C700B1
:100198002008C6004608B600B701B801B9013608FC
:1001A800BC07370803110318013E0319DC28BD07F3
:1001B800380803110318013E0319E328BE0739085C
:1001C80003110318013E0319EA28BF074708B600C0
:1001D800B701B801B9013608C20737080311031877
:1001E800013E0319F828C307380803110318013E14
:1001F8000319FF28C407390803110318013E03191E
:100208000629C5073008B6003608A00032080A12C9
:100218008A11A2270A128A11831203132108C70020
:100228002008C6004608B600B701B801B90136086B
:10023800BC07370803110318013E03192429BD0719
:10024800380803110318013E03192B29BE07390882
:1002580003110318013E03193229BF074708B600E6
:10026800B701B801B9013608C207370803110318E6
:10027800013E03194029C307380803110318013E3A
:1002880003194729C407390803110318013E031944
:100298004E29C5070830B6000310BC0DBD0DBE0DB4
:1002A800BF0DB60B50292F08B6003608A00032083B
:1002B8000A128A11A2270A128A118312031321082B
:1002C800C7002008C6004608B6004708B700B801AE
:1002D800B9013608BC07370803110318013E031992
:1002E8007629BD07380803110318013E03197D2933
:1002F800BE07390803110318013E03198429BF07F3
:100308002E08B6003608A00033080A128A11A22760
:100318000A128A11831203132108C7002008C60095
:100328004608B6004708B700B801B9013608BC0747
:10033800370803110318013E0319A329BD0738081C
:1003480003110318013E0319AA29BE07390803112E
:100358000318013E0319B129BF070830B60003107E
:10036800BC0DBD0DBE0DBF0DB60BB3292E08B600D2
:100378003608A00032080A128A11A2270A128A1126
:10038800831203132108C7002008C6004608B600D8
:100398004708B700B801B9013608BC073708031188
:1003A8000318013E0319D929BD073808031103189A
:1003B800013E0319E029BE07390803110318013E5D
:1003C8000319E729BF072F08B6003608A00034082C
:1003D8000A128A11A2270A128A118312031321080A
:1003E800C7002008C6004608B6004708B700B8018D
:1003F800B9013608C207370803110318013E03196B
:10040800062AC307380803110318013E03190D2AE9
:10041800C407390803110318013E0319142AC50734
:100428003008B6003608A00033080A128A11A2273D
:100438000A128A11831203132108C7002008C60074
:100448004608B6004708B700B801B9013608C20720
:10045800370803110318013E0319332AC307380864
:1004680003110318013E03193A2AC4073908031176
:100478000318013E0319412AC5073008B60036089B
:10048800A00034080A128A11A2270A128A118312BC
:1004980003132108C7002008C6004608B60047080D
:1004A800B700B801B90108300310B60DB70DB80D83
:1004B800B90DFF3E031D582A3608C2073708031135
:1004C8000318013E0319692AC307380803110318E2
:1004D800013E0319702AC407390803110318013EA5
:1004E8000319772AC5073C08B6003D08B7003E083F
:1004F800B8003F08B90018300310B90CB80CB70C95
:10050800B60CFF3E031D802A3608C20737080311C0
:100518000318013E0319912AC30738080311031869
:10052800013E0319982AC407390803110318013E2C
:1005380003199F2AC5070830B6000310BC0DBD0D6E
:10054800BE0DBF0DB60BA12A41084007B600B70182
:10055800B70D3608823EC60037080318013EFF3E35
:10056800C700D32A0130B6000310C20DC30DC40D55
:10057800C50DB60BB82ABF1FC22AC32AC42A421403
:100588000130B6000310BC0DBD0DBE0DBF0DB60B7E
:10059800C62AFF30C6070318C70AFF30C707C41F9B
:1005A800D62AD72AB62AC001BF1FDB2ADC2AF82A96
:1005B800FF303C05B600FF303D05B700FF303E0573
:1005C800B8007F303F05B9003908380437043604CD
:1005D8000319EF2AF02AF32AC001C00AF82A421C9C
:1005E800F62AF72AF82AF02A40080319FC2AFD2AD5
:1005F8002E2B0130C207003003180130C30700302A
:1006080003180130C407003003180130C507451C22
:100618000E2B0F2B2E2B4208B6004308B7004408B8
:10062800B8004508B9000130BA00390DB90CB80C4A
:10063800B70CB60CBA0B192B3908C5003808C4001A
:100648003708C3003608C2000130C6070318C70AB6
:100658000030C7074708803AFF0080307F02031D3B
:10066800372BFF304602031C3A2B3B2B462B7F309F
:1006780083120313C5008030C4000030C30000306B
:10068800C2007B2B831203134708803AFF00803097
:100698007F02031D512B013046020318542B552BA2
:1006A800612B003083120313C5000030C4000030F2
:1006B800C3000030C200BB017B2B83120313460822
:1006C800B6003608C100FF30C205FF30C3057F30D1
:1006D800C4050030C505411C722B732B742BC4173D
:1006E8004108B6000310360CB7003708C5003B08B0
:1006F800B6003608C5044508B1004408B0004308F0
:10070800AF004208AE0008000A128A1168270A12D0
:100718008A11831203130711C73083120313D300FE
:10072800952BD30B942B982B01300A128A15852709
:100738000A128A110A128A11F2270A128A118312DE
:100748000313D300D4015308D9005408DA000D303C
:1007580083120313D400FB30D300D30BB12BD40B7B
:10076800B12B831203135908A0005A08A100A20153
:10077800A30100300A128A1112250A128A11831263
:1007880003132308B5002208B4002108B300200889
:10079800B2003F30B100FB30B0000230AF000C3087
:1007A800AE000A128A1127200A128A118312031333
:1007B8003108CB003008CA002F08C9002E08C8002D
:1007C8000A128A11CE250A128A11831203134908C4
:1007D800DA004808D9005A08A9005908A8000A12DE
:1007E8008A114A260A128A1102300A128A158527A6
:1007F8000A128A110A128A11F2270A128A1183121E
:100808000313D300D4015308D7005408D8000D307F
:1008180083120313D400FB30D300D30B112CD40B59
:10082800112C831203135708580403191C2C1D2C70
:10083800062D60080A128A1592270A128A11413079
:1008480083120313D300D30B272C2A2C2C300A1223
:100858008A1592270A128A11413083120313D30092
:10086800D30B342C372C831203135F080A128A1512
:1008780092270A128A11413083120313D300D30B33
:10088800432C462C2C300A128A1592270A128A11F8
:10089800413083120313D300D30B502C532C8312F3
:1008A80003135E080A128A1592270A128A11413028
:1008B80083120313D300D30B5F2C622C2C300A1243
:1008C8008A1592270A128A11413083120313D30022
:1008D800D30B6C2C6F2C831203135708A0005808F5
:1008E800A100A201A30100300A128A1112250A12DE
:1008F8008A11831203132308B5002208B4002108C3
:10090800B3002008B2003F30B100FB30B000023025
:10091800AF000C30AE000A128A1127200A128A1181
:10092800831203133108CB003008CA002F08C9000E
:100938002E08C8000A128A11CE250A128A118312BB
:1009480003134908D8004808D7005808A9005708D1
:10095800A8000A128A114A260A128A11831203135E
:1009680060080A128A1592270A128A1141308312E6
:100978000313D300D30BBE2CC12C2C300A128A15BA
:1009880092270A128A11413083120313D300D30B22
:10099800CB2CCE2C831203135F080A128A159227D8
:1009A8000A128A11413083120313D300D30BDA2CB5
:1009B800DD2C2C300A128A1592270A128A1141302E
:1009C80083120313D300D30BE72CEA2C83120313EF
:1009D8005E080A128A1592270A128A114130831278
:1009E8000313D300D30BF62CF92C0A300A128A15FC
:1009F80092270A128A11413083120313D300D30BB2
:100A0800032D062D831203135C085D07D3005B08D2
:100A1800530786008D2B0A128A110E28831203139E
:100A2800A80028080319192D1A2D2E2DA31F1D2DD6
:100A38001E2D2E2D2009AA002109AB002209AC0089
:100A48002309AD00AA0A0319AB0A0319AC0A031952
:100A5800AD0A362D2308AD002208AC002108AB00F2
:100A68002008AA002308220421042004031D3D2D88
:100A78003E2D472D0030A3000030A2000030A10019
:100A88000030A000CD2D9630A4002408A900592DCF
:100A98000130A4002408A90701300310AD0CAC0CE8
:100AA800AB0CAA0CFF3E031D512DFE302D05031D76
:100AB8005E2D5F2D4C2D7B2D0130A4002408A90745
:100AC8000130AA07003003180130AB0700300318C3
:100AD8000130AC07003003180130AD0701300310B6
:100AE800AD0CAC0CAB0CAA0CFF3E031D732DFF30F4
:100AF8002D05031D802D812D602D8D2D0130A9021E
:100B08000130A4000310AA0DAB0DAC0DAD0DA40B64
:100B1800862DAC1B902D912D972D0230290203189C
:100B2800962D972D822D29189A2D9B2DA32DFF30B8
:100B3800AA05FF30AB057F30AC05FF30AD050310CB
:100B4800A90C2908A400A501A601A70118300310C3
:100B5800A40DA50DA60DA70DFF3E031DAB2D240862
:100B6800AA042508AB042608AC042708AD04280805
:100B78000319BF2DC02DC52DA31FC32DC42DC52DF1
:100B8800AD172D08A3002C08A2002B08A1002A08E5
:100B9800A00008000310831203134A0D4B0DCC006C
:100BA8004C08D2005208031DDA2DDB2DE42D00304D
:100BB800CB000030CA000030C9000030C800492E00
:100BC8004808CC004908CD004A08CE004B08CF00A1
:100BD8001F300310CF0CCE0CCD0CCC0CFF3E031DE8
:100BE800ED2D4C08D0005008D100CA17FF30C805B9
:100BF800FF30C905FF30CA050030CB059630D20258
:100C0800D21F072E082E222E5208803A973E03182C
:100C18000E2E0F2E102EDB2D01300310CB0CCA0C1C
:100C2800C90CC80CFF3E031D112E0130CC004C0826
:100C3800D207031D202E212E102E392E20305202CD
:100C4800031C272E282E342EDB2D0130CC00031058
:100C5800C80DC90DCA0DCB0DCC0B2B2E0130D202FD
:100C68005208031D382E392E292E510803193D2EFE
:100C78003E2E492EC809C909CA09CB09C80A031951
:100C8800C90A0319CA0A0319CB0A080083120313F5
:100C98002908AD002808AC006430A0000030A1008D
:100CA8002D08A3002C08A2000A128A1122270A1272
:100CB8008A11831203132008AA002A08E00060089A
:100CC800AA00AB012A08A0002B08A1009C30A200B2
:100CD800FF30A3000A128A15D9270A128A11831233
:100CE80003132C082007AC002D0803182D0A210730
:100CF800AD000A30A0000030A1002D08A3002C0888
:100D0800A2000A128A1122270A128A1183120313D7
:100D18002008AA002A08DF005F08AA00AB012A08F9
:100D2800A0002B08A100F630A200FF30A3000A1291
:100D38008A15D9270A128A11831203132C0820074F
:100D4800AC002D0803182D0A2107AD002C08AA00B5
:100D58002A08DE006008303EAA002A08E0005F0882
:100D6800303EAA002A08DF005E08303EAA002A08A2
:100D7800DE0008008B13831203138C1EC42EC52EAD
:100D8800182F61301A02031CCA2ECB2E052F69308A
:100D98001A020318D02ED12E052F1A08F400740851
:100DA800F900182F6430F4007408F0001A08D03ED7
:100DB8000A128A15A6270A128A11F50075088312E5
:100DC8000313DD00FA01FA0A182F0A30F400740838
:100DD800F0001A08D03E0A128A15A6270A128A11AC
:100DE800F500750883120313DC000230F400740860
:100DF800FA00182F1A08D03EF4007408DB00FA0134
:100E0800182F7A08F400F5017508003A03190D2F18
:100E1800182F7408003A0319D62E013A0319E92E3F
:100E2800033A0319FE2E182F8B1778088A007708C3
:100E38008400760E8300FE0E7E0E090083120313D3
:100E4800A501A6012008210403192B2F2C2F632F9D
:100E5800A701A70A3A2F01300310A00DA10DFF3EEC
:100E6800031D302F0130A4002408A707A11F3D2F20
:100E78003E2F2F2F01300310A50DA60DFF3E031D99
:100E88003F2F21082302031D4B2F20082202031C99
:100E98004E2F4F2F562F2008A2022108031CA30310
:100EA800A302251401300310A10CA00CFF3E031D62
:100EB800572F0130A702031D622F632F3E2F2608EC
:100EC800A1002508A00008008316031788018901DE
:100ED8008316031385010711871783120313071558
:100EE8008316031388018901860183120313850180
:100EF8008601870188018901831603130F178F164E
:100F08000F120F14003083120313A000A100013048
:100F1800A2000030A3000A128A11CB270A128A11F4
:100F28008B170B1783120313A001A101A201203014
:100F38000A128A15BB270A128A11080083120313A2
:100F4800A800A401A5012008A200A3012208A60068
:100F58002308A700281CB12FB22FB82F2608A407F2
:100F68000318A50A2708A50701300310A60DA70D29
:100F7800FF3E031DB92F0310A80C2808031DC52F19
:100F8800C62FAE2F2508A1002408A000080083164C
:100F980003131812181518139816831203139817A9
:100FA800181318168316031787111930831603139D
:100FB800990001309A0083120313200C831603133F
:100FC800031C0C1203180C1683120313220C83162D
:100FD8000313031C8C1203188C1608000A128A15B6
:0E0FE8008B270A128A118312031313080800C4
:101F0A0083120313A000200893000800831603130A
:101F1A00141C902F912F8B2F080083120313A200F9
:101F2A000C1E982F992FA52F220899000D30831285
:101F3A000313A100FB30A000A00BA12FA10BA12F1E
:101F4A000800F300F201731CAB2FAC2FB02F7008FE
:101F5A00F1007108F2070310F00D0310F30C730877
:101F6A00031DB82FB92FA82F720808008312031374
:101F7A00A30083160313871283120313231DC62F8C
:101F8A00C72FCD2F22088316031394008715D32F4A
:101F9A002008220483160313940087118312031363
:101FAA00230821049400080083120313A401A50145
:101FBA00201CE02FE12FE72F2208A4070318A50A07
:101FCA002308A50701300310A20DA30DFF3E031D30
:101FDA00E82F01300310A10CA00CFF3E031DEF2FC8
:101FEA0020082104031DFA2FFB2FDD2F2508A1004D
:061FFA002408A00008000D
:04400E00D520FF3F7B
:00000001FF
