:020000040000FA
:060000000A128A110C280F
:10000800FE00030EF0000A08F1000A128A11C22F3E
:100018000A128A110F28FA01FB0183120313CD017A
:10002800CE01CF01D001D101D201D301D401D50134
:1000380083010A128A11812B83120313290880393C
:10004800AE002E08B3002908AE002E07AF002F0817
:10005800B900A81F30283128322839143908031963
:10006800362837284628390A031D3B283C284428C7
:100078000030A9000030A8000030A7000030A6001A
:10008800A8174E280030A9000030A8000030A700AB
:100098000030A6002D088039AE002E08B3062D08C2
:1000A800AE002E07AF002F08B400AC1F5C285D28F7
:1000B8005E28341434080319622863287228340A25
:1000C800031D6728682870280030AD000030AC0098
:1000D8000030AB000030AA00AC177A280030AD0021
:1000E8000030AC000030AB000030AA00340803191F
:1000F8007E287F2884283908031D832884288D2892
:100108000030A9000030A8000030A7000030A60089
:10011800802B2608AE002E08F2002C080A128A113D
:1001280023270A128A11730883120313BF00720867
:10013800BE003E08AE00AF01B001B1013108B80001
:100148003008B7002F08B6002E08B5003F08AE00EB
:10015800AF01B001B1013108BD003008BC002F0863
:10016800BB002E08BA002708AE002E08F2002B08A4
:100178000A128A1123270A128A1173088312031399
:10018800BF007208BE003E08AE00AF01B001B10169
:100198002E08B5072F0803110318013E0319D528A7
:1001A800B607300803110318013E0319DC28B70706
:1001B800310803110318013E0319E328B8073F0863
:1001C800AE00AF01B001B1012E08BA072F08031124
:1001D8000318013E0319F128BB073008031103185F
:1001E800013E0319F828BC07310803110318013E22
:1001F8000319FF28BD072808AE002E08F2002A08B8
:100208000A128A1123270A128A1173088312031308
:10021800BF007208BE003E08AE00AF01B001B101D8
:100228002E08B5072F0803110318013E03191D29CD
:10023800B607300803110318013E03192429B7072C
:10024800310803110318013E03192B29B8073F0889
:10025800AE00AF01B001B1012E08BA072F08031193
:100268000318013E03193929BB0730080311031885
:10027800013E03194029BC07310803110318013E48
:1002880003194729BD070830AE000310B50DB60D98
:10029800B70DB80DAE0B49292708AE002E08F2009D
:1002A8002A080A128A1123270A128A11730883124C
:1002B8000313BF007208BE003E08AE003F08AF003F
:1002C800B001B1012E08B5072F0803110318013E2C
:1002D80003196F29B607300803110318013E0319E3
:1002E8007629B707310803110318013E03197D2940
:1002F800B8072608AE002E08F2002B080A128A1149
:1003080023270A128A11730883120313BF00720885
:10031800BE003E08AE003F08AF00B001B1012E0894
:10032800B5072F0803110318013E03199C29B607C6
:10033800300803110318013E0319A329B707310830
:1003480003110318013E0319AA29B8070830AE00A3
:100358000310B50DB60DB70DB80DAE0BAC292608B8
:10036800AE002E08F2002A080A128A1123270A1260
:100378008A11730883120313BF007208BE003E0877
:10038800AE003F08AF00B001B1012E08B5072F0835
:1003980003110318013E0319D229B60730080311C7
:1003A8000318013E0319D929B707310803110318A7
:1003B800013E0319E029B8072708AE002E08F2000D
:1003C8002C080A128A1123270A128A117308831229
:1003D8000313BF007208BE003E08AE003F08AF001E
:1003E800B001B1012E08BA072F0803110318013E06
:1003F8000319FF29BB07300803110318013E03192D
:10040800062ABC07310803110318013E03190D2AF7
:10041800BD072808AE002E08F2002B080A128A1120
:1004280023270A128A11730883120313BF00720864
:10043800BE003E08AE003F08AF00B001B1012E0873
:10044800BA072F0803110318013E03192C2ABB070A
:10045800300803110318013E0319332ABC07310879
:1004680003110318013E03193A2ABD072808AE00F4
:100478002E08F2002C080A128A1123270A128A1160
:10048800730883120313BF007208BE003E08AE0053
:100498003F08AF00B001B10108300310AE0DAF0D39
:1004A800B00DB10DFF3E031D512A2E08BA072F08C3
:1004B80003110318013E0319622ABB073008031110
:1004C8000318013E0319692ABC07310803110318F0
:1004D800013E0319702ABD073508AE003608AF0083
:1004E8003708B0003808B10018300310B10CB00C50
:1004F800AF0CAE0CFF3E031D792A2E08BA072F0851
:1005080003110318013E03198A2ABB073008031197
:100518000318013E0319912ABC0731080311031877
:10052800013E0319982ABD070830AE000310B50D27
:10053800B60DB70DB80DAE0B9A2A39083407AE00C0
:10054800AF01AF0D2E08823EBE002F080318013EF2
:10055800FF3EBF00CC2A0130AE000310BA0DBB0D20
:10056800BC0DBD0DAE0BB12AB81FBB2ABC2ABD2AD3
:100578003A140130AE000310B50DB60DB70DB80D25
:10058800AE0BBF2AFF30BE070318BF0AFF30BF07F4
:10059800BC1FCF2AD02AAF2AB401B81FD42AD52A23
:1005A800F12AFF303505AE00FF303605AF00FF30C9
:1005B8003705B0007F303805B100310830042F040A
:1005C8002E040319E82AE92AEC2AB401B40AF12A0C
:1005D8003A1CEF2AF02AF12AE92A34080319F52AE5
:1005E800F62A272B0130BA07003003180130BB0761
:1005F800003003180130BC07003003180130BD0774
:100608003D1C072B082B272B3A08AE003B08AF00F0
:100618003C08B0003D08B1000130B200310DB10C0A
:10062800B00CAF0CAE0CB20B122B3108BD00300869
:10063800BC002F08BB002E08BA000130BE07031803
:10064800BF0A0030BF073F08803AFF0080307F02B2
:10065800031D302BFF303E02031C332B342B3F2B62
:100668007F3083120313BD008030BC000030BB0014
:100678000030BA00742B831203133F08803AFF003E
:1006880080307F02031D4A2B01303E0203184D2B98
:100698004E2B5A2B003083120313BD000030BC00D0
:1006A8000030BB000030BA00B301742B831203136F
:1006B8003E08AE002E08B900FF30BA05FF30BB0572
:1006C8007F30BC050030BD05391C6B2B6C2B6D2BA6
:1006D800BC173908AE0003102E0CAF002F08BD0060
:1006E8003308AE002E08BD043D08A9003C08A80048
:1006F8003B08A7003A08A60008000A128A11ED264E
:100708000A128A11831203130711C73083120313C5
:10071800CB008E2BCB0B8D2B912B01300A128A111B
:10072800D2270A128A110A128A11B9270A128A11C3
:1007380083120313CB00CC014B08D1004C08D20024
:100748000D3083120313CC00FB30CB00CB0BAA2B4C
:10075800CC0BAA2B831203135108F2005208F300A2
:10076800F401F50100300A128A11FD240A128A11D7
:10077800750883120313AD007408AC007308AB004E
:100788007208AA003F30A900FB30A8000230A70079
:100798000C30A6000A128A1120200A128A1183122C
:1007A80003132908C3002808C2002708C100260827
:1007B800C0000A128A11B9250A128A11831203137A
:1007C8004108D2004008D1005208A1005108A000F9
:1007D8000A128A1135260A128A1102300A128A115F
:1007E800D2270A128A110A128A11B9270A128A1103
:1007F80083120313CB00CC014B08CF004C08D00068
:100808000D3083120313CC00FB30CB00CB0B0A2C2A
:10081800CC0B0A2C831203134F0850040319152C10
:10082800162C862B7B080A128A11A6270A128A110F
:10083800413083120313CB00CB0B202C232C2C30FC
:100848000A128A11A6270A128A1141308312031349
:10085800CB00CB0B2D2C302C7A080A128A11A62734
:100868000A128A11413083120313CB00CB0B3A2CA6
:100878003D2C2C300A128A11A6270A128A114130FF
:1008880083120313CB00CB0B472C4A2C8312031380
:1008980054080A128A11A6270A128A1141308312B3
:1008A8000313CB00CB0B562C592C2C300A128A116F
:1008B800A6270A128A11413083120313CB00CB0BEF
:1008C800632C662C831203134F08F2005008F300C0
:1008D800F401F50100300A128A11FD240A128A1166
:1008E800750883120313AD007408AC007308AB00DD
:1008F8007208AA003F30A900FB30A8000230A70008
:100908000C30A6000A128A1120200A128A118312BA
:1009180003132908C3002808C2002708C1002608B5
:10092800C0000A128A11B9250A128A118312031308
:100938004108D0004008CF005008A1004F08A0008F
:100948000A128A1135260A128A117B080A128A119C
:10095800A6270A128A11413083120313CB00CB0B4E
:10096800B32CB62C2C300A128A11A6270A128A1127
:10097800413083120313CB00CB0BC02CC32C7A0855
:100988000A128A11A6270A128A1141308312031308
:10099800CB00CB0BCD2CD02C2C300A128A11A627D9
:1009A8000A128A11413083120313CB00CB0BDA2CC5
:1009B800DD2C8312031354080A128A11A6270A127F
:1009C8008A11413083120313CB00CB0BE92CEC2C9A
:1009D8000A300A128A11A6270A128A114130831294
:1009E8000313CB00CB0BF62CF92C862B0A128A1199
:1009F8000C2883120313A00020080319042D052DC9
:100A0800192DF51F082D092D192D7209A20073093A
:100A1800A3007409A4007509A500A20A0319A30A72
:100A28000319A40A0319A50A212D7508A50074083D
:100A3800A4007308A3007208A20075087404730464
:100A48007204031D282D292D322D0030F5000030A9
:100A5800F4000030F3000030F200B82D9630F600B4
:100A68007608A100442D0130F6007608A107013070
:100A78000310A50CA40CA30CA20CFF3E031D3C2DD7
:100A8800FE302505031D492D4A2D372D662D0130D1
:100A9800F6007608A1070130A207003003180130DC
:100AA800A307003003180130A407003003180130F1
:100AB800A50701300310A50CA40CA30CA20CFF3E43
:100AC800031D5E2DFF302505031D6B2D6C2D4B2D51
:100AD800782D0130A1020130F6000310A20DA30DFC
:100AE800A40DA50DF60B712DA41B7B2D7C2D822D3D
:100AF800023021020318812D822D6D2D2118852D9C
:100B0800862D8E2DFF30A205FF30A3057F30A4056A
:100B1800FF30A5050310A10C2108F600F701F80124
:100B2800F90118300310F60DF70DF80DF90DFF3E19
:100B3800031D962D7608A2047708A3047808A40458
:100B48007908A50420080319AA2DAB2DB02DF51F8F
:100B5800AE2DAF2DB02DA5172508F5002408F400FB
:100B68002308F3002208F20008000310831203137D
:100B7800420D430DC4004408CA004A08031DC52D90
:100B8800C62DCF2D0030C3000030C2000030C10098
:100B98000030C000342E4008C4004108C500420897
:100BA800C6004308C7001F300310C70CC60CC50C8D
:100BB800C40CFF3E031DD82D4408C8004808C900CE
:100BC800C217FF30C005FF30C105FF30C205003035
:100BD800C3059630CA02CA1FF22DF32D0D2E4A08FE
:100BE800803A973E0318F92DFA2DFB2DC62D0130BA
:100BF8000310C30CC20CC10CC00CFF3E031DFC2D1E
:100C08000130C4004408CA07031D0B2E0C2EFB2D0F
:100C1800242E20304A02031C122E132E1F2EC62DFE
:100C28000130C4000310C00DC10DC20DC30DC40BAB
:100C3800162E0130CA024A08031D232E242E142E14
:100C480049080319282E292E342EC009C109C209C2
:100C5800C309C00A0319C10A0319C20A0319C30A3E
:100C68000800831203132108A5002008A40064309B
:100C7800F2000030F3002508F5002408F4000A12F9
:100C88008A11A9260A128A11720883120313A20074
:100C98002208FB007B08A200A3012208F200230817
:100CA800F3009C30F400FF30F5000A128A114C273B
:100CB8000A128A118312031324087207A400250854
:100CC8000318250A7307A5000A30F2000030F30064
:100CD8002508F5002408F4000A128A11A9260A1228
:100CE8008A11720883120313A2002208FA007A08F4
:100CF800A200A3012208F2002308F300F630F40052
:100D0800FF30F5000A128A114C270A128A11831241
:100D1800031324087207A40025080318250A73077B
:100D2800A5002408A2002208D4007B08303EA200B7
:100D38002208FB007A08303EA2002208FA00540874
:100D4800303EA2002208D4000800F701F80172081A
:100D580073040319B02EB12EE82EF901F90ABF2E3B
:100D680001300310F20DF30DFF3E031DB52E0130C7
:100D7800F6007608F907F31FC22EC32EB42E0130F1
:100D88000310F70DF80DFF3E031DC42E73087502FE
:100D9800031DD02E72087402031CD32ED42EDB2E12
:100DA8007208F4027308031CF503F5027714013086
:100DB8000310F30CF20CFF3E031DDC2E0130F90288
:100DC800031DE72EE82EC32E7808F3007708F200FB
:100DD8000800831603178801890183160313850108
:100DE8000711871783120313071583160313880146
:100DF8008901860183120313850186018701880111
:100E08008901831603130F178F160F120F14003062
:100E1800F200F3000130F4000030F5000A128A11E4
:100E280071270A128A118B170B17F201F301F401CB
:100E380020300A128A1190270A128A110800831298
:100E48000313A400A001A1017208F400F5017408BD
:100E5800A2007508A300241C322F332F392F220833
:100E6800A0070318A10A2308A10701300310A20D47
:100E7800A30DFF3E031D3A2F0310A40C2408031DE5
:100E8800462F472F2F2F2108F3002008F2000800D3
:100E9800F601F701721C512F522F582F7408F607CC
:100EA8000318F70A7508F70701300310F40DF50D5C
:100EB800FF3E031D592F01300310F30CF20CFF3EC7
:100EC800031D602F72087304031D6B2F6C2F4E2FA8
:100ED8007708F3007608F200080083160313181247
:100EE8001815181398168312031398171813181641
:100EF80083160317871119308316031399000130DD
:100F08009A00720C031C0C1203180C16740C031CA8
:100F18008C1203188C160800F50083160313871229
:100F2800751D972F982F9C2F740894008715A02F54
:100F380072087404940087117508730483120313EC
:100F480094000800F400831203130C1EAC2FAD2F7D
:100F5800B82F740899000D30F300FB30F200F20B43
:100F6800B32FF30BB32FB82F08000A128A11CB271F
:100F78000A128A1183120313130808008B138B17A4
:100F880071088A00700E8300FE0E7E0E090083161B
:100F98000313141CD02FD12FCB2F0800F200720896
:080FA8008312031393000800FB
:04400E00D520FF3F7B
:00000001FF
