:020000040000FA
:060000000A128A110E280D
:10000800FE00030EF8000408F9000A08FA000A12B4
:100018008A1169280A128A111128FB01FC01FD01C5
:1000280083120313AA01AB0183010A128A11B428AF
:1000380053282408840022088000840A23088000AA
:100048002008A500A50DA50D1F082506C3392506FE
:100058009F000F3083120313A500A50B3128342805
:10006800831203139F146828240884002208800040
:10007800840A230880002008A500A50DA50D1F08E7
:100088002506C33925069F000F3083120313A500E8
:10009800A50B4C284F28831203139F14682883123A
:1000A80003131F0CA500250C0F39A600A70127086C
:1000B800003A0319602868282608003A03191D2801
:1000C800013A03193828682808008B138312031390
:1000D8000C1F6F2870287C280A128A116E210A12B8
:1000E8008A11710883120313AB007008AA000C135D
:1000F8008C1D7F288028AA280A128A117C210A12BE
:100108008A11F6007608FB0097287D080A128A11E2
:100118008C210A128A11A7287C080A128A118C21BC
:100128000A128A11A7287B08F600F7017708003A17
:1001380003199F28A7287608013A03198928033A42
:1001480003199028A728831203138C118B177A0898
:100158008A0079088400780E8300FE0E7E0E09005E
:100168000A128A11F6200A128A1101308312031327
:10017800A0000030A1002B08A3002A08A2007D30AF
:10018800A8002808A4000A128A111C200A128A1141
:100198000D3083120313A900FB30A800A80BD22846
:1001A800A90BD228003083120313A000A1002B084A
:1001B800A3002A08A2007C30A8002808A4000A127C
:1001C8008A111C200A128A110D3083120313A90008
:1001D800FB30A800A80BEE28A90BEE28B9280A12B4
:1001E8008A110E28033083160317880089012330EB
:1001F800831603138500880189018601831203137E
:1002080085018601870188018901831603130F1769
:100218008F160F120F14003083120313A000A100D1
:100228000A128A112D210A128A1183120313A001BE
:10023800A101A20124300A128A1150210A128A113E
:100248008B170B17831203138C11831603138C154A
:100258000800831203131F142008A200A20DA20D88
:100268001F082206C33922069F0020308312031379
:10027800A200A20B3D290000831203131F083F3977
:1002880040389F00831603139F131F129F120C17E9
:10029800831203130C13080083120313A30083169D
:1002A8000313871283120313231D5B295C29622918
:1002B800220883160313940087156829200822044E
:1002C8008316031394008711831203132308210450
:1002D80094000800831203131E08F200F301720849
:1002E800F4007308F5007508F1007408F0000800C0
:1002F8000A128A1185210A128A118312031313081C
:10030800080083160313141C8A298B2985290800E1
:0C031800F000700883120313930008002B
:04400E00D520FF3F7B
:00000001FF
