:020000040000FA
:060000000A128A110E280D
:10000800FE00030EF8000408F9000A08FA000A12B4
:100018008A1169280A128A111128FB01FC01FD01C5
:1000280083120313A901AA0183010A128A11EB287A
:1000380053282408840022088000840A23088000AA
:100048002008A500A50DA50D1F082506C3392506FE
:100058009F000F3083120313A500A50B3128342805
:10006800831203139F146828240884002208800040
:10007800840A230880002008A500A50DA50D1F08E7
:100088002506C33925069F000F3083120313A500E8
:10009800A50B4C284F28831203139F14682883123A
:1000A80003131F0CA500250C0F39A600A70127086C
:1000B800003A0319602868282608003A03191D2801
:1000C800013A03193828682808008B138312031390
:1000D8000C1F6F2870287C280A128A115A210A12CC
:1000E8008A11710883120313AA007008A9000C135F
:1000F8008C1D7F288028AA280A128A1168210A12D2
:100108008A11F6007608FB0097287D080A128A11E2
:1001180078210A128A11A7287C080A128A117821E4
:100128000A128A11A7287B08F600F7017708003A17
:1001380003199F28A7287608013A03198928033A42
:1001480003199028A728831203138C118B177A0898
:100158008A0079088400780E8300FE0E7E0E09005E
:10016800033083160317880089012330831603138D
:1001780085008801890186018312031385018601A0
:10018800870188018901831603130F178F160F1231
:100198000F14003083120313A000A1000A128A1161
:1001A80019210A128A1183120313A001A101A201C5
:1001B80024300A128A113C210A128A118B170B1754
:1001C800831203138C11831603138C1508000A126B
:1001D8008A11B4200A128A11013083120313A00075
:1001E8000030A1002A08A3002908A2007D30A80039
:1001F8002808A4000A128A111C200A128A11003049
:1002080083120313A000A1002A08A3002908A20052
:100218007C30A8002808A4000A128A111C200A129F
:100228008A11F0280A128A110E28831203131F1448
:100238002008A200A20DA20D1F082206C33922061B
:100248009F00203083120313A200A20B292900006B
:10025800831203131F083F3940389F008316031386
:100268009F131F129F120C17831203130C130800FD
:1002780083120313A3008316031387128312031335
:10028800231D472948294E29220883160313940061
:100298008715542920082204831603139400871114
:1002A8008312031323082104940008008312031304
:1002B8001E08F200F3017208F4007308F5007508CF
:1002C800F1007408F00008000A128A1171210A125C
:1002D8008A11831203131308080083160313141CCE
:1002E8007629772971290800F00070088312031312
:0402F8009300080067
:04400E00D520FF3F7B
:00000001FF
