:020000040000FA
:060000000A128A110C280F
:10000800FE00030EF0000A08F1000A128A15FD2E00
:100018000A128A110F2883120313CE01CF01D001CF
:10002800D101D201D30183010A128A117C2B8312D8
:10003800031329088039AE002E08B3002908AE0042
:100048002E07AF002F08B900A81F2B282C282D2811
:10005800391439080319312832284128390A031D6F
:10006800362837283F280030A9000030A800003083
:10007800A7000030A600A81749280030A9000030C2
:10008800A8000030A7000030A6002D088039AE0077
:100098002E08B3062D08AE002E07AF002F08B800B3
:1000A800AC1F5728582859283814380803195D28D0
:1000B8005E286D28380A031D622863286B280030E3
:1000C800AD000030AC000030AB000030AA00AC1727
:1000D80075280030AD000030AC000030AB000030B7
:1000E800AA003808031979287A287F283908031DB7
:1000F8007E287F2888280030A9000030A80000301A
:10010800A7000030A6007B2B2608AE002E08F200C0
:100118002C080A128A15B0270A128A11730883124A
:100128000313BF007208BE003E08AE00AF01B00165
:10013800B1013108B7003008B6002F08B5002E0805
:10014800B4003F08AE00AF01B001B1013108BD00F5
:100158003008BC002F08BB002E08BA002708AE00E4
:100168002E08F2002B080A128A15B0270A128A11E3
:10017800730883120313BF007208BE003E08AE0066
:10018800AF01B001B1012E08B4072F0803110318FD
:10019800013E0319D028B507300803110318013EA2
:1001A8000319D728B607310803110318013E0319AC
:1001B800DE28B7073F08AE00AF01B001B1012E0835
:1001C800BA072F0803110318013E0319EC28BB07CF
:1001D800300803110318013E0319F328BC0731083E
:1001E80003110318013E0319FA28BD072808AE00B9
:1001F8002E08F2002A080A128A15B0270A128A1154
:10020800730883120313BF007208BE003E08AE00D5
:10021800AF01B001B1012E08B4072F08031103186C
:10022800013E03191829B507300803110318013EC8
:1002380003191F29B607310803110318013E0319D2
:100248002629B7073F08AE00AF01B001B1012E085B
:10025800BA072F0803110318013E03193429BB07F5
:10026800300803110318013E03193B29BC07310864
:1002780003110318013E03194229BD070830AE00D7
:100288000310B40DB50DB60DB70DAE0B44292708F4
:10029800AE002E08F2002A080A128A15B0270A12A0
:1002A8008A11730883120313BF007208BE003E0848
:1002B800AE003F08AF00B001B1012E08B4072F0807
:1002C80003110318013E03196A29B5073008031101
:1002D8000318013E03197129B607310803110318E1
:1002E800013E03197829B7072608AE002E08F20048
:1002F8002B080A128A15B0270A128A11730883126A
:100308000313BF007208BE003E08AE003F08AF00EE
:10031800B001B1012E08B4072F0803110318013EDC
:1003280003199729B507300803110318013E03196B
:100338009E29B607310803110318013E0319A529A0
:10034800B7070830AE000310B40DB50DB60DB70DE4
:10035800AE0BA7292608AE002E08F2002A080A12BA
:100368008A15B0270A128A11730883120313BF0073
:100378007208BE003E08AE003F08AF00B001B101F0
:100388002E08B4072F0803110318013E0319CD29BD
:10039800B507300803110318013E0319D429B6071D
:1003A800310803110318013E0319DB29B707270891
:1003B800AE002E08F2002C080A128A15B0270A127D
:1003C8008A11730883120313BF007208BE003E0827
:1003D800AE003F08AF00B001B1012E08BA072F08E0
:1003E80003110318013E0319FA29BB07300803114A
:1003F8000318013E0319012ABC0731080311031829
:10040800013E0319082ABD072808AE002E08F2008D
:100418002B080A128A15B0270A128A117308831248
:100428000313BF007208BE003E08AE003F08AF00CD
:10043800B001B1012E08BA072F0803110318013EB5
:100448000319272ABB07300803110318013E0319B3
:100458002E2ABC07310803110318013E0319352A57
:10046800BD072808AE002E08F2002C080A128A15CB
:10047800B0270A128A11730883120313BF00720887
:10048800BE003E08AE003F08AF00B001B101083021
:100498000310AE0DAF0DB00DB10DFF3E031D4C2A7C
:1004A8002E08BA072F0803110318013E03195D2A05
:1004B800BB07300803110318013E0319642ABC075F
:1004C800310803110318013E03196B2ABD073408CC
:1004D800AE003508AF003608B0003708B100183054
:1004E8000310B10CB00CAF0CAE0CFF3E031D742A08
:1004F8002E08BA072F0803110318013E0319852A8D
:10050800BB07300803110318013E03198C2ABC07E6
:10051800310803110318013E0319932ABD07083057
:10052800AE000310B40DB50DB60DB70DAE0B952A80
:1005380039083807AE00AF01AF0D2E08823EBE0065
:100548002F080318013EFF3EBF00C72A0130AE0046
:100558000310BA0DBB0DBC0DBD0DAE0BAC2AB71FF9
:10056800B62AB72AB82A3A140130AE000310B40DDF
:10057800B50DB60DB70DAE0BBA2AFF30BE0703187E
:10058800BF0AFF30BF07BC1FCA2ACB2AAA2AB80154
:10059800B71FCF2AD02AEC2AFF303405AE00FF302F
:1005A8003505AF00FF303605B0007F303705B100A4
:1005B800310830042F042E040319E32AE42AE72A19
:1005C800B801B80AEC2A3A1CEA2AEB2AEC2AE42AEF
:1005D80038080319F02AF12A222B0130BA07003013
:1005E80003180130BB07003003180130BC07003086
:1005F80003180130BD073D1C022B032B222B3A08A0
:10060800AE003B08AF003C08B0003D08B100013027
:10061800B200310DB10CB00CAF0CAE0CB20B0D2BFF
:100628003108BD003008BC002F08BB002E08BA00F6
:100638000130BE070318BF0A0030BF073F08803AE1
:10064800FF0080307F02031D2B2BFF303E02031C6E
:100658002E2B2F2B3A2B7F3083120313BD008030B3
:10066800BC000030BB000030BA006F2B83120313AC
:100678003F08803AFF0080307F02031D452B013080
:100688003E020318482B492B552B003083120313C5
:10069800BD000030BC000030BB000030BA00B30120
:1006A8006F2B831203133E08AE002E08B900FF30EB
:1006B800BA05FF30BB057F30BC050030BD05391CCD
:1006C800662B672B682BBC173908AE0003102E0C5D
:1006D800AF002F08BD003308AE002E08BD043D084A
:1006E800A9003C08A8003B08A7003A08A600080093
:1006F8000A128A15D7270A128A110A128A11FE26A7
:100708000A128A110A128A11EF270A128A11F601AF
:10071800F60A01300A128A11A6260A128A11013035
:100728000A128A1566270A128A110A128A150627DA
:100738000A128A117130F2000030F3000A128A1589
:1007480018270A128A110030F200F3000A128A11DF
:10075800C1270A128A11730883120313CF00720883
:10076800CE000A128A150F270A128A110330831243
:100778000313CD000830CC007630CB00CB0BC22B56
:10078800CC0BC22BCD0BC22B00000A128A150627F0
:100798000A128A118130F2000030F3000A128A1519
:1007A80018270A128A110030F200F3000A128A117F
:1007B800C1270A128A11720883120313CB004B084F
:1007C800D0000A128A150F270A128A1103308312E1
:1007D8000313CD000830CC007630CB00CB0BF22BC6
:1007E800CC0BF22BCD0BF22B0000831203134E0817
:1007F800F2004F08F300F401F50100300A128A11E3
:1008080092240A128A11750883120313AD00740822
:10081800AC007308AB007208AA003F30A900FB3097
:10082800A8000230A7000C30A6000A128A111B206B
:100838000A128A11831203132908C3002808C20068
:100848002708C1002608C0000A128A114E250A127C
:100858008A11831203134108CF004008CE004F08C5
:10086800FB004E08FA000A128A11CA250A128A11D8
:10087800F601F60A02300A128A11A6260A128A110D
:100888008312031353080A128A1549270A128A1178
:100898002E300A128A1549270A128A118312031365
:1008A80052080A128A1549270A128A118312031359
:1008B80051080A128A1549270A128A1112300A1297
:1008C8008A1566270A128A11831203135008CB006F
:1008D800CC014B08FA004C08FB000A128A11CA2501
:1008E8000A128A118312031353080A128A15492718
:1008F8000A128A118312031352080A128A15492709
:100908000A128A118312031351080A128A154927F9
:100918000A128A11992B0A128A110C2883120313BE
:10092800A00020080319992C9A2CAE2CF51F9D2C99
:100938009E2CAE2C7209A2007309A3007409A400AE
:100948007509A500A20A0319A30A0319A40A031921
:10095800A50AB62C7508A5007408A4007308A3009E
:100968007208A2007508740473047204031DBD2C78
:10097800BE2CC72C0030F5000030F4000030F30026
:100988000030F2004D2D9630F6007608A100D92CE3
:100998000130F6007608A10701300310A50CA40C5D
:1009A800A30CA20CFF3E031DD12CFE302505031D10
:1009B800DE2CDF2CCC2CFB2C0130F6007608A107AE
:1009C8000130A207003003180130A30700300318D4
:1009D8000130A407003003180130A50701300310C7
:1009E800A50CA40CA30CA20CFF3E031DF32CFF3096
:1009F8002505031D002D012DE02C0D2D0130A10230
:100A08000130F6000310A20DA30DA40DA50DF60BE1
:100A1800062DA41B102D112D172D023021020318AD
:100A2800162D172D022D21181A2D1B2D232DFF30C1
:100A3800A205FF30A3057F30A405FF30A5050310EC
:100A4800A10C2108F600F701F801F901183003108C
:100A5800F60DF70DF80DF90DFF3E031D2B2D760849
:100A6800A2047708A3047808A4047908A504200838
:100A780003193F2D402D452DF51F432D442D452DA0
:100A8800A5172508F5002408F4002308F300220818
:100A9800F2000800031083120313420D430DC40033
:100AA8004408CA004A08031D5A2D5B2D642D0030E6
:100AB800C3000030C2000030C1000030C000C92DA2
:100AC8004008C4004108C5004208C6004308C700E2
:100AD8001F300310C70CC60CC50CC40CFF3E031D09
:100AE8006D2D4408C8004808C900C217FF30C0056A
:100AF800FF30C105FF30C2050030C3059630CA0279
:100B0800CA1F872D882DA22D4A08803A973E0318C0
:100B18008E2D8F2D902D5B2D01300310C30CC20C30
:100B2800C10CC00CFF3E031D912D0130C4004408C8
:100B3800CA07031DA02DA12D902DB92D20304A02E2
:100B4800031CA72DA82DB42D5B2D0130C400031064
:100B5800C00DC10DC20DC30DC40BAB2D0130CA02AF
:100B68004A08031DB82DB92DA92D49080319BD2D13
:100B7800BE2DC92DC009C109C209C309C00A03197C
:100B8800C10A0319C20A0319C30A08007B088312A1
:100B98000313A3007A08A2006430F2000030F300C7
:100BA8002308F5002208F4000A128A1145270A12C0
:100BB8008A11720883120313A0002008D300530877
:100BC800A000A1012008F2002108F3009C30F400E5
:100BD800FF30F5000A128A158B270A128A11831230
:100BE800031322087207A20023080318230A7307B5
:100BF800A3000A30F2000030F3002308F5002208B1
:100C0800F4000A128A1145270A128A1172088312FF
:100C18000313A0002008D2005208A000A101200858
:100C2800F2002108F300F630F400FF30F5000A1254
:100C38008A158B270A128A11831203132208720756
:100C4800A20023080318230A7307A3002208A000A0
:100C58002008D1005308303EA0002008D3005208D5
:100C6800303EA0002008D2005108303EA0002008E5
:100C7800D1000800003083120313A3000030A20043
:100C88000030A1000030A0007508740473047204D9
:100C980003194F2E502E9D2EA401A40A602E013058
:100CA800FA000310F20DF30DF40DF50DFA0B552EA5
:100CB8000130FA007A08A407F51F632E642E532E1C
:100CC8000130FA000310A00DA10DA20DA30DFA0B1F
:100CD800662E75087902031D7B2E74087802031DA1
:100CE8007B2E73087702031D7B2E72087602031C85
:100CF8007E2E7F2E8E2E7208F6027308031C730F49
:100D0800F7027408031C740FF8027508031C750FAA
:100D1800F902201401300310F50CF40CF30CF20C5A
:100D2800FF3E031D8F2E0130A402031D9C2E9D2E15
:100D3800642E2308F5002208F4002108F300200897
:100D4800F200080083120313A0002003031DAD2E38
:100D5800AE2ED32E76087F3EF7007708A30023082F
:100D6800F70004300310F70CFF3E031DB62E77087A
:100D7800F8007808A10023080F39F7007708A200C7
:100D880021080A128A152F270A128A1183120313BF
:100D980022080A128A152F270A128A11FD2E0230FC
:100DA8002006031DD82ED92EFD2E7608BF3EF7004B
:100DB8007708A3002308F70004300310F70CFF3E60
:100DC800031DE12E7708F8007808A1002308F03900
:100DD800F7007708A20021080A128A152F270A129D
:100DE8008A118312031322080A128A152F270A125E
:100DF8008A11080000300A128A15F7260A128A1189
:100E08001A30F700F830F600F60B082FF70B082F0A
:100E1800000030300A128A152F270A128A1107306B
:100E2800F7007D30F600F60B172FF70B172F303031
:100E38000A128A152F270A128A114230F600F60B79
:100E4800232F000030300A128A152F270A128A1120
:100E58003C300A128A152F270A128A1108300A1202
:100E68008A152F270A128A1101300A128A152F278C
:100E78000A128A1106300A128A152F270A128A11B5
:100E88000800F701F8017208730403194C2F4D2F5D
:100E9800842FF901F90A5B2F01300310F20DF30DCD
:100EA800FF3E031D512F0130F6007608F907F31FA6
:100EB8005E2F5F2F502F01300310F70DF80DFF3E06
:100EC800031D602F73087502031D6C2F72087402CE
:100ED800031C6F2F702F772F7208F4027308031CFE
:100EE800F503F502771401300310F30CF20CFF3E02
:100EF800031D782F0130F902031D832F842F5F2FE4
:100F08007808F3007708F2000800283083120313EA
:100F18009400831603139101831203132508A90073
:100F28002608AA002708AB002808AC0002300310E6
:100F3800A90DAA0DAB0DAC0DFF3E031D9B2F2C0870
:100F4800F5002B08F4002A08F3002908F200003005
:100F5800F9007A30F8001230F7000030F6000A1273
:100F68008A113E260A128A117208FF3E831603135D
:100F7800930094018715071608000A128A1522277C
:100F88000A128A118316031391150A128A15222749
:100F98000A128A11831203131308F400F501740866
:100FA800F6007508F7000A128A1522270A128A1114
:100FB80072037304031DE12FE22FE62F8316031338
:100FC8009112E92F83160313911611167708F3006F
:100FD8007608F200080000300A128A152F270A1234
:100FE8008A1101300A128A152F270A128A1108005D
:1010000008308A000408840A8207003420345334EC
:1010100031343A34203420342034533432343A34A6
:10102000203420342034533433343A34003476348A
:06103000203420340034DE
:101DEE00F200720883120313880008008B138B17FE
:101DFE0071088A00700E8300FE0E7E0E09000A1214
:101E0E008A1522270A128A15831603131114080045
:101E1E000A128A1522270A128A1583160313111520
:101E2E0008000A128A1522270A128A1572088312CE
:101E3E00031393000800831603131419272F282F5A
:101E4E00222F11081F39031D2D2F2E2F222F080090
:101E5E00F50083120313091075080A128A15F72666
:101E6E000A128A158312031389140630F4003030D7
:101E7E00F300F30B402FF40B402F000083120313DB
:101E8E0089100800F4007408F3007308F500750853
:101E9E00F3007308F60083120313091476080A126E
:101EAE008A15F7260A128A158312031389140D3028
:101EBE00F300F30B602F8312031389100800F9004F
:101ECE00F701F8017D2F7708790784000A128A1529
:101EDE0000200A128A150A128A1549270A128A1533
:101EEE000130F7070318F80A0030F807770879076A
:101EFE0084000A128A1500200A128A15003A031D60
:101F0E00892F8A2F6A2F0800F601F701721C902F75
:101F1E00912F972F7408F6070318F70A7508F7071D
:101F2E0001300310F40DF50DFF3E031D982F013007
:101F3E000310F30CF20CFF3E031D9F2F7208730467
:101F4E00031DAA2FAB2F8D2F7708F3007608F20012
:101F5E000800FA00F601F7017208F400F5017408A2
:101F6E00F8007508F9007A1CBD2FBE2FC42F780813
:101F7E00F6070318F70A7908F70701300310F80D72
:101F8E00F90DFF3E031DC52F0310FA0C7A08031D31
:101F9E00D12FD22FBA2F7708F3007608F20008005F
:101FAE00831603178801890183160313850188019F
:101FBE008901860183120313850186018701880139
:101FCE008901831603130F178F160F160F148B1319
:101FDE000B13003083120313A8000130A7008630C4
:101FEE00A600A030A5000A128A1189270A128A15A6
:021FFE000800D9
:04400E00D520FF3F7B
:00000001FF
