:020000040000FA
:060000000A128A110E280D
:10000800FE00030EF6000408F7000A08F8000A12BA
:100018008A1120280A128A111128F901FA01FB0114
:10002800FC01FD0183120313B001B101B201B30158
:1000380083010A128A11AB288B130B1C242825284C
:1000480048288312031306182A282B282E28FD0176
:10005800FD0A38287D03031D32283328382801304B
:10006800F4007408B307FD0186183B283C283F2894
:10007800FC01FC0A47287C03031D43284428472821
:100088000130B302FC010B10831203138C1E4D28A0
:100098004E28A12861301A02031C532854288E28A0
:1000A80069301A02031859285A288E281A08F400A9
:1000B8007408F900A1286430F4007408F0001A08E4
:1000C800D03E0A128A1163220A128A11F5007508B5
:1000D80083120313B200FA01FA0AA1280A30F400C5
:1000E8007408F0001A08D03E0A128A1163220A1214
:1000F8008A11F500750883120313B1000230F40069
:100108007408FA00A1281A08D03EF4007408B00058
:10011800FA01A1287A08F400F5017508003A0319D4
:100128009628A1287408003A03195F28013A031990
:100138007228033A03198728A1288B1778088A00A0
:1001480077088400760E8300FE0E7E0E09000A12E0
:100158008A11E5210A128A11831203133308AE00AB
:10016800AF012E08A8002F08A9000A128A112B2116
:100178000A128A118312031336080A128A11782286
:100188000A128A11413083120313AE00AE0BCA283B
:10019800CD282C300A128A1178220A128A1141308D
:1001A80083120313AE00AE0BD728DA288312031389
:1001B80035080A128A1178220A128A1141308312EC
:1001C8000313AE00AE0BE628E9282C300A128A1178
:1001D80078220A128A11413083120313AE00AE0B43
:1001E800F328F6288312031334080A128A11782296
:1001F8000A128A11413083120313AE00AE0B022992
:1002080005292C300A128A1178220A128A114130E3
:1002180083120313AE00AE0B0F2912290D300A12F8
:100228008A1178220A128A11413083120313AE0010
:10023800AE0B1C291F298312031331083207AE00A5
:1002480030082E078800B0280A128A110E28831257
:1002580003132908AD002808AC006430A000003062
:10026800A1002D08A3002C08A2000A128A119F21C0
:100278000A128A11831203132008AA002A08B6005A
:100288003608AA00AB012A08A0002B08A1009C3060
:10029800A200FF30A3000A128A113C220A128A1116
:1002A800831203132C082007AC002D0803182D0A0D
:1002B8002107AD000A30A0000030A1002D08A300DE
:1002C8002C08A2000A128A119F210A128A1183128D
:1002D80003132008AA002A08B5003508AA00AB01B4
:1002E8002A08A0002B08A100F630A200FF30A300C6
:1002F8000A128A113C220A128A11831203132C084B
:100308002007AC002D0803182D0A2107AD002C0882
:10031800AA002A08B4003608303EAA002A08B60007
:100328003508303EAA002A08B5003408303EAA0035
:100338002A08B400080083120313A501A6012008A7
:1003480021040319A829A929E029A701A70AB7297F
:1003580001300310A00DA10DFF3E031DAD29013092
:10036800A4002408A707A11FBA29BB29AC2901307A
:100378000310A50DA60DFF3E031DBC29210823026D
:10038800031DC82920082202031CCB29CC29D32904
:100398002008A2022108031CA303A302251401308C
:1003A8000310A10CA00CFF3E031DD4290130A702A5
:1003B800031DDF29E029BB292608A1002508A00084
:1003C8000800831603178801890183160313850122
:1003D8008801890103308600831203138501860191
:1003E800870188018901831603130F178F160F12CF
:1003F8000F148113151495141614961400308312D3
:100408000313A000A1000130A2000030A3000A12CB
:100418008A1115220A128A118B170B178B150B10CC
:100428000800831603131812181518139816831248
:100438000313981718131816831603178711193002
:1004480083160313990001309A0083120313200CBA
:1004580083160313031C0C1203180C1683120313C0
:10046800220C83160313031C8C1203188C16080025
:1004780083120313A401A501201C432A442A4A2AF3
:100488002208A4070318A50A2308A50701300310AA
:10049800A20DA30DFF3E031D4B2A01300310A10C32
:1004A800A00CFF3E031D522A20082104031D5D2ACB
:1004B8005E2A402A2508A1002408A0000800F300AD
:1004C800F201731C682A692A6D2A7008F100710804
:1004D800F2070310F00D0310F30C7308031D752ABF
:1004E800762A652A7208080083120313A2000C1EDC
:1004F8007E2A7F2A8B2A220899000D308312031343
:10050800A100FB30A000A00B872AA10B872A0800B6
:04400E00D520FF3F7B
:00000001FF
