:020000040000FA
:060000000A128A110C280F
:10000800FE00030EF0000A08F1000A128A11CB293B
:100018000A128A110F28F901FA01FB0183010A1259
:100028008A114F2900300A128A112D210A128A11C9
:100038003430F700F130F600F60B2028F70B2028B3
:10004800252803300A128A11A4210A128A110D30B8
:10005800F700FB30F600F60B2F28F70B2F28342873
:1000680003300A128A11A4210A128A111D30F700DE
:100078009130F600F60B3E28F70B3E2803300A12A3
:100088008A11A4210A128A1102300A128A11A421A3
:100098000A128A1102300A128A11A4210A128A113C
:1000A80008300A128A11A4210A128A1100300A1291
:1000B8008A11A4210A128A110C300A128A11A42169
:1000C8000A128A1100300A128A11A4210A128A110E
:1000D80006300A128A11A4210A128A110800831212
:1000E8000313A0002003031D7A287B28A028760884
:1000F8007F3EF7007708A3002308F70004300310B9
:10010800F70CFF3E031D83287708F8007808A10044
:1001180023080F39F7007708A20021080A128A116C
:10012800A4210A128A118312031322080A128A11BF
:10013800A4210A128A11CA2802302006031DA52804
:10014800A628CA287608BF3EF7007708A300230828
:10015800F70004300310F70CFF3E031DAE287708A4
:10016800F8007808A10023080F39F7007708A200E3
:1001780021080A128A11A4210A128A118312031370
:1001880022080A128A11A4210A128A110800F6000C
:1001980076080F39F3007308F4007608F039F30095
:1001A8007308F5008312031306167508F30004306C
:1001B8000310F30CFF3E031DDC2873080A128A1192
:1001C8002D210A128A118312031386161A30F3009E
:1001D800F30BEC28000083120313861274080A122A
:1001E8008A112D210A128A118312031386161A30D6
:1001F800F300F30BFD280000831203138612080096
:1002080083120313A000A101A2011F2921082007BE
:1002180084000A128A1170210A128A110A128A119C
:10022800CB200A128A11013083120313A107031885
:10023800A20A0030A2072108200784000A128A11A6
:1002480070210A128A11003A031D2B292C290A2928
:100258000800F200721C312932293629831203134F
:1002680006143929831203130610F21C3C293D2970
:100278003F29861440298610721D4329442946299E
:10028800061547290611F21D4A294B294D298615BD
:100298004E29861108000A128A118A210A128A1127
:1002A8000A128A1116200A128A110A128A11BE210C
:1002B8000A128A11F601F60A01300A128A1173200D
:1002C8000A128A1101300A128A1104210A128A11AB
:1002D8006C290A128A110C2801308A000408840A41
:1002E800820700345034453453344F343A34203480
:1002F80043344F344C344F3452343A34203442343B
:1003080041344E34443441343A34003483160317AC
:1003180088018901831603138501880189018601F3
:1003280083120313850186018701880189018316D9
:1003380003130F178F160F160F148B170B170800C0
:10034800F50083120313061275080A128A112D216B
:100358000A128A118312031386160B30F4006230D6
:10036800F300F30BB529F40BB5290000831203132E
:100378008612080000300A128A11A4210A128A1172
:1003880001300A128A11A4210A128A1108008B135B
:100398008B1771088A00700E8300FE0E7E0E09000E
:04400E00D520FF3F7B
:00000001FF
