:020000040000FA
:060000000A128A1110280B
:10000800FE00030E83120313A2000408A3000A08CB
:10001800A4000A128A11EF290A128A1113288312DE
:100028000313BE01BF01C001C101C201C3018301A5
:100038000A128A111F280A128A11E7250A128A1140
:100048000A128A11F1230A128A110A128A113B270D
:100058000A128A1183120313A901A90A01300A128C
:100068008A1153240A128A1101300A128A11512660
:100078000A128A110A128A1168270A128A11503044
:1000880083120313A5000030A6000A128A1155270F
:100098000A128A11013083120313A5000030A6004A
:1000A8000A128A1155270A128A110A128A115F2721
:1000B8000A128A11033083120313BD000830BC00F2
:1000C8007630BB00BB0B6628BC0B6628BD0B6628C8
:1000D80000000A128A1168270A128A115130831205
:1000E8000313A5000030A6000A128A1155270A1228
:1000F8008A11003083120313A500A6000A128A1180
:100108001F260A128A11831203132508BB003B0815
:10011800C0000A128A115F270A128A11033083125B
:100128000313BD000830BC007630BB00BB0B9A2817
:10013800BC0B9A28BD0B9A2800000A128A1168275E
:100148000A128A11713083120313A5000030A60029
:100158000A128A1155270A128A11003083120313D2
:10016800A500A6000A128A111F260A128A118312F4
:1001780003132508BB003B08BE000A128A115F273B
:100188000A128A11033083120313BD000830BC0021
:100198007630BB00BB0BCE28BC0BCE28BD0BCE28BF
:1001A800000009290730BB003B08A90002300A12E9
:1001B8008A1153240A128A1123300A128A115126ED
:1001C8000A128A111E290730BB003B08A900023019
:1001D8000A128A1153240A128A1115300A128A1136
:1001E80051260A128A111E290730BB003B08A900B4
:1001F80002300A128A1153240A128A111C300A1278
:100208008A1151260A128A111E29831203133E08E5
:10021800BB00BC013C08003A031913291E293B08FE
:10022800013A0319D628033A0319E728013A0319B2
:10023800F8281E29831203134008031924292529A5
:1002480060293F03031D29292A29602940088800BD
:10025800A901A90A02300A128A1153240A128A1122
:10026800831203134008BB00BC013B08AD003C08E7
:10027800AE000A128A11A5220A128A1183120313E8
:1002880043080A128A1135250A128A1183120313A8
:1002980042080A128A1135250A128A118312031399
:1002A80041080A128A1135250A128A112E300A12BB
:1002B8008A1151260A128A11831203133F03031D60
:1002C8006629672978290E30BB003B08A90002304F
:1002D8000A128A1153240A128A112A300A128A1120
:1002E80051260A128A1188290E30BB003B08A90042
:1002F80002300A128A1153240A128A1132300A1261
:100308008A1151260A128A110A128A1168270A12BA
:100318008A11503083120313A5000030A6000A1278
:100328008A1155270A128A11023083120313A50075
:100338000030A6000A128A1155270A128A110A12D9
:100348008A115F270A128A11033083120313BD0032
:100358000830BC007630BB00BB0BB029BC0BB02901
:10036800BD0BB02900000A128A1168270A128A11E7
:10037800513083120313A5000030A6000A128A1117
:1003880055270A128A11003083120313A500A6000C
:100398000A128A111F260A128A11831203132508CA
:1003A800BB003B08BF000A128A115F270A128A1194
:1003B800033083120313BD000830BC007630BB0045
:1003C800BB0BE429BC0BE429BD0BE42900003E2843
:1003D8000A128A1110288B138C1EF329F429992AE2
:1003E80041301A02031CF929FA29992A44301A02C1
:1003F8000318FF29002A992A862A4008A000A1018B
:100408002008F8002108F9000A128A1119230A1293
:100418008A118312031343080A128A1128270A1221
:100428008A11843083120313A000A00B192A00003C
:100438008312031342080A128A1128270A128A1102
:10044800843083120313A000A00B282A0000831213
:10045800031341080A128A1128270A128A118430C4
:1004680083120313A000A00B372A00000D300A12D4
:100478008A1128270A128A11843083120313A000D4
:10048800A00B442A0000992A3E08A000A1012008D8
:10049800F8002108F9000A128A1119230A128A1190
:1004A8008312031341080A128A1128270A128A1193
:1004B800402A3F08A000A1012008F8002108F900FF
:1004C8000A128A1119230A128A1183120313410886
:1004D8000A128A1128270A128A11843083120313F8
:1004E800A000A00B752A00000D300A128A112827D7
:1004F8000A128A11843083120313A000A00B822AE7
:100508000000992A1A08A000A1012108003A03193D
:100518008E2A992A2008413A0319012A033A031915
:10052800482A013A03195D2A992A8B178312031363
:1005380024088A0023088400220E8300FE0E7E0E03
:100548000900831203132E08B2002D08B10064308D
:10055800A5000030A6003208A8003108A7000A123A
:100568008A11AB240A128A11831203132508AF00DB
:100578002F08C3004308AF00B0012F08A5003008BA
:10058800A6009C30A700FF30A8000A128A117A261C
:100598000A128A118312031331082507B1003208A1
:1005A8000318320A2607B2000A30A5000030A60058
:1005B8003208A8003108A7000A128A11AB240A12CF
:1005C8008A11831203132508AF002F08C2004208BE
:1005D800AF00B0012F08A5003008A600F630A7002C
:1005E800FF30A8000A128A117A260A128A11831289
:1005F800031331082507B10032080318320A260709
:10060800B2003108AF002F08C1004308303EAF00E8
:100618002F08C3004208303EAF002F08C20041082F
:10062800303EAF002F08C10008007908FD007808A7
:10063800FC006430F0000030F1007D08F3007C0815
:10064800F2000A128A11F1240A128A117008FA00BB
:100658007A0883120313C3004308FA00FB017A08DF
:10066800F0007B08F1009C30F200FF30F3000A1222
:100678008A11C7260A128A117C087007FC007D08B7
:1006880003187D0A7107FD000A30F0000030F10000
:100698007D08F3007C08F2000A128A11F1240A127C
:1006A8008A117008FA007A0883120313C2004208FC
:1006B800FA00FB017A08F0007B08F100F630F2003E
:1006C800FF30F3000A128A11C7260A128A117C0821
:1006D8007007FC007D0803187D0A7107FD007C087F
:1006E800FA007A0883120313C1004308303EFA0067
:1006F8007A08C3004208303EFA007A08C20041086E
:10070800303EFA007A08C100080000308312031353
:10071800B1000030B0000030AF000030AE00280853
:1007280027042604250403199A2B9B2BE82BB201D6
:10073800B20AAB2B0130AD000310A50DA60DA70D15
:10074800A80DAD0BA02B0130AD002D08B207A81FD6
:10075800AE2BAF2B9E2B0130AD000310AE0DAF0DAD
:10076800B00DB10DAD0BB12B28082C02031DC62B03
:1007780027082B02031DC62B26082A02031DC62B99
:1007880025082902031CC92BCA2BD92B2508A90225
:100798002608031C260FAA022708031C270FAB02F2
:1007A8002808031C280FAC022E1401300310A80CD3
:1007B800A70CA60CA50CFF3E031DDA2B0130B202D4
:1007C800031DE72BE82BAF2B3108A8003008A70042
:1007D8002F08A6002E08A500080000300A128A116A
:1007E800EC260A128A11343083120313AA00F1305E
:1007F800A900A90BFD2BAA0BFD2B03300A128A11A5
:100808000C270A128A110D3083120313AA00FB3039
:10081800A900A90B0D2CAA0B0D2C03300A128A1162
:100828000C270A128A111D3083120313AA00903074
:10083800A900A90B1D2CAA0B1D2C000003300A12BD
:100848008A110C270A128A1102300A128A110C27FF
:100858000A128A1102300A128A110C270A128A1106
:1008680008300A128A110C270A128A1100300A125B
:100878008A110C270A128A110C300A128A110C27C5
:100888000A128A1100300A128A110C270A128A11D8
:1008980006300A128A110C270A128A1108008312DC
:1008A8000313AC002C03031D5A2C5B2C802C290845
:1008B8007F3EAA002A08AF002F08AA0004300310C0
:1008C800AA0CFF3E031D632C2A08AB002B08AD00C1
:1008D8002F080F39AA002A08AE002D080A128A111B
:1008E8000C270A128A11831203132E080A128A117E
:1008F8000C270A128A11AA2C02302C06031D852CFB
:10090800862CAA2C2908BF3EAA002A08AF002F0867
:10091800AA0004300310AA0CFF3E031D8E2C2A08DF
:10092800AB002B08AD002F080F39AA002A08AE002B
:100938002D080A128A110C270A128A11831203132E
:100948002E080A128A110C270A128A11080083122B
:100958000313AA01AB01250826040319B42CB52CEE
:10096800EC2CAC01AC0AC32C01300310A50DA60D6C
:10097800FF3E031DB92C0130A9002908AC07A61FAA
:10098800C62CC72CB82C01300310AA0DAB0DFF3EA6
:10099800031DC82C26082802031DD42C250827026D
:1009A800031CD72CD82CDF2C2508A7022608031CEB
:1009B800A803A8022A1401300310A60CA50CFF3EB8
:1009C800031DE02C0130AC02031DEB2CEC2CC72CD2
:1009D8002B08A6002A08A5000800F501F6017008F2
:1009E80071040319F82CF92C302DF701F70A072D9B
:1009F80001300310F00DF10DFF3E031DFD2C0130F9
:100A0800F4007408F707F11F0A2D0B2DFC2C013098
:100A18000310F50DF60DFF3E031D0C2D7108730232
:100A2800031D182D70087202031C1B2D1C2D232D6D
:100A38007008F2027108031CF303F3027514013005
:100A48000310F10CF00CFF3E031D242D0130F702BA
:100A5800031D2F2D302D0B2D7608F1007508F000A1
:100A6800080083120313A90029080F39A6002608D5
:100A7800A7002908F039A6002608A80006162808A5
:100A8800A60004300310A60CFF3E031D462D2608C1
:100A98000A128A11EC260A128A1183120313861687
:100AA800193083120313A600A60B582D5B2D831251
:100AB8000313861227080A128A11EC260A128A11D1
:100AC800831203138616193083120313A600A60B8C
:100AD8006B2D6E2D831203138612080005308A00D1
:100AE8000408840A820700345034453453344F34A0
:100AF8003A34203443344F344C344F3452343A343B
:100B08002034423441344E34443441343A3400348D
:100B180041345A3455344C3420342034003452345F
:100B28004F344A344F3420342034003442344C3467
:100B380041344E3443344F3400344F344E3420342F
:100B4800003467347234203400344F344634463429
:100B58000034283083120313940083160313910181
:100B6800831203133308B7003408B8003508B900F6
:100B78003608BA0002300310B70DB80DB90DBA0D1A
:100B8800FF3E031DBF2D3A08A8003908A700380802
:100B9800A6003708A5000030AC007A30AB00123050
:100BA800AA000030A9000A128A1189230A128A11A0
:100BB800831203132508FF3E831603139300940141
:100BC80087150716080083160317880189018316FD
:100BD80003138501880189018601831203138501A6
:100BE8008601870188018901831603130F178F1661
:100BF8000F160F148717003083120313A500A600E1
:100C08000130A7000030A8000A128A11A1260A1292
:100C18008A11003083120313B6000130B500863004
:100C2800B400A030B3000A128A11AD250A128A1145
:100C38008B170B1708000A128A1148270A128A1103
:100C48008316031391150A128A1148270A128A116A
:100C5800831203131308A700A8012708A90028086E
:100C6800AA000A128A1148270A128A11831203134A
:100C780025032604031D412E422E462E83160313F8
:100C88009112492E8316031391161116831203131A
:100C98002A08A6002908A500080083120313AC003F
:100CA800AA01AB016C2E2A082C0784000A128A11AB
:100CB80072250A128A110A128A1135250A128A1116
:100CC800013083120313AA070318AB0A0030AB07DD
:100CD8002A082C0784000A128A1172250A128A111E
:100CE800003A031D782E792E572E0800831203131D
:100CF800A901AA01251C812E822E882E2708A90762
:100D08000318AA0A2808AA0701300310A70DA80D7E
:100D1800FF3E031D892E01300310A60CA50CFF3ED3
:100D2800031D902E25082604031D9B2E9C2E7E2E27
:100D38002A08A6002908A50008008316031318121C
:100D480018111813981683120313981718131816E6
:100D58008316031787110C308316031399009A0121
:100D680083120313250C83160313031C0C12031898
:100D78000C1683120313270C83160313031C8C12FF
:100D880003188C160800F401F501701CCC2ECD2E2A
:100D9800D32E7208F4070318F50A7308F507013013
:100DA8000310F20DF30DFF3E031DD42E0130031086
:100DB800F10CF00CFF3E031DDB2E70087104031DBF
:100DC800E62EE72EC92E7508F1007408F000080019
:100DD80083120313A500251CF22EF32EF52E0614FC
:100DE800F62E0610A51CF92EFA2EFC2E8614FD2EC2
:100DF8008610251D002F012F032F0615042F06111D
:100E0800A51D072F082F0A2F86150B2F86110800FE
:100E180083120313A800061228080A128A11EC2666
:100E28000A128A118312031386160B3083120313D6
:100E3800A7006130A600A60B1F2FA70B1F2F242F7A
:100E48008312031386120800F200831203130C1E88
:100E58002E2F2F2F3A2F720899001A30F100F830F0
:100E6800F000F00B352FF10B352F00000800003093
:100E78000A128A110C270A128A1101300A128A11E1
:100E88000C270A128A1108008316031314194D2F10
:100E98004E2F482F11081F39031D532F542F482F49
:100EA80008000A128A1148270A128A1183120313AA
:100EB8002508930008000A128A1148270A128A1185
:100EC80083160313111508000A128A1148270A12FB
:0A0ED8008A11831603131114080099
:04400E00D520FF3F7B
:00000001FF
