:020000040000FA
:060000000A128A110E280D
:10000800FE00030EF8000408F9000A08FA000A12B4
:100018008A111E2A0A128A11112883133430FD000E
:100028000230FE00DD30FF00203084000A128A1101
:10003800F5220A128A11B401B501B601B701B80157
:10004800B901FB01FC0183010A128A11042BEC2976
:10005800831203131E08F600F7017408840083173F
:10006800751C831376088000840A7708800072085C
:10007800F600F60DF60D1F087606C33976069F00C2
:100088002130F600F60B4628831203139F141D2A0D
:10009800831203131E08F600F701740884008317FF
:1000A800751C831376088000840A7708800072081C
:1000B800F600F60DF60D1F087606C33976069F0082
:1000C8002130F600F60B6628831203139F141D2AAD
:1000D800831203131E08F600F701740884008317BF
:1000E800751C831376088000840A770880007208DC
:1000F800F600F60DF60D1F087606C33976069F0042
:100108002130F600F60B8628831203139F141D2A4C
:10011800831203131E08F600F7017408840083177E
:10012800751C831376088000840A7708800072089B
:10013800F600F60DF60D1F087606C33976069F0001
:100148002130F600F60BA628831203139F141D2AEC
:10015800831203131E08F600F7017408840083173E
:10016800751C831376088000840A7708800072085B
:10017800F600F60DF60D1F087606C33976069F00C1
:100188002130F600F60BC628831203139F141D2A8C
:10019800831203131E08F600F701740884008317FE
:1001A800751C831376088000840A7708800072081B
:1001B800F600F60DF60D1F087606C33976069F0081
:1001C8002130F600F60BE628831203139F141D2A2C
:1001D800831203131E08F600F701740884008317BE
:1001E800751C831376088000840A770880007208DB
:1001F800F600F60DF60D1F087606C33976069F0041
:100208002130F600F60B0629831203139F141D2ACA
:10021800831203131E08F600F7017408840083177D
:10022800751C831376088000840A7708800072089A
:10023800F600F60DF60D1F087606C33976069F0000
:100248002130F600F60B2629831203139F141D2A6A
:10025800831203131E08F600F7017408840083173D
:10026800751C831376088000840A7708800072085A
:10027800F600F60DF60D1F087606C33976069F00C0
:100288002130F600F60B4629831203139F141D2A0A
:10029800831203131E08F600F701740884008317FD
:1002A800751C831376088000840A7708800072081A
:1002B800F600F60DF60D1F087606C33976069F0080
:1002C8002130F600F60B6629831203139F141D2AAA
:1002D800831203131E08F600F701740884008317BD
:1002E800751C831376088000840A770880007208DA
:1002F800F600F60DF60D1F087606C33976069F0040
:100308002130F600F60B8629831203139F141D2A49
:10031800831203131E08F600F7017408840083177C
:10032800751C831376088000840A77088000720899
:10033800F600F60DF60D1F087606C33976069F00FF
:100348002130F600F60BA629831203139F141D2AE9
:10035800831203131E08F600F7017408840083173C
:10036800751C831376088000840A77088000720859
:10037800F600F60DF60D1F087606C33976069F00BF
:100388002130F600F60BC629831203139F141D2A89
:10039800831203131E08F600F701740884008317FC
:1003A800751C831376088000840A77088000720819
:1003B800F600F60DF60D1F087606C33976069F007F
:1003C8002130F600F60BE629831203139F141D2A29
:1003D8007108003A0319F1291D2A7008003A031917
:1003E8002C28013A03194C28033A03196C28013ABE
:1003F80003198C28073A0319AC28013A0319CC28A9
:10040800033A0319EC28013A03190C290F3A031986
:100418002C29013A03194C29033A03196C29013A8A
:1004280003198C29073A0319AC29013A0319CC2975
:100438001D2A08008B130B1D222A232A282A643020
:100448008312031381000B110B1C2B2A2C2A5D2A03
:10045800831203130618312A322A372A0130FB0087
:100468000030FC00452A7B037C04031D3C2A3D2AFE
:10047800452A0130B8070318B90A0030B907FB014B
:10048800FC018618482A492A4E2A0130B600003055
:10049800B7005C2A36033704031D532A542A5C2A02
:1004A800FF30B8070318B90AFF30B907B601B7011A
:1004B8000B10831203130C1F622A632A772A023057
:1004C800F0000030F1000230F2000030F300083094
:1004D800F4000030F5000A128A112B200A128A1142
:1004E800831203130C138B177A088A007908840087
:1004F800780E8300FE0E7E0E090004308316031763
:100508008800890104308316031385008701880158
:100518008901033086008312031385018601870150
:1005280088018901831603130F178F160F120F14F2
:10053800543081006430831203138100831603133F
:100548001514951416149614023083120313BA0066
:100558000030BB000A128A11BA220A128A118B17BC
:100568000B178B160B118B150B1008008312031336
:100578001F143A08BC00BC0DBC0D1F083C06C3394B
:100588003C069F00203083120313BC00BC0BCA2A10
:100598000000831203131F083F3940389F00831659
:1005A80003139F131F129F120C17831203130C13AC
:1005B80008003F340034063400345B3400344F34D0
:1005C8000034663400346D3400347D34003407342C
:1005D80000347F340034673400347E088A007F0892
:1005E80082000A128A11F1220A128A118000840AF2
:1005F80004087D0603190034FF0A0319FE0AF52AC8
:100608000A128A1181220A128A11831203139F1473
:0C061800380887000C2B0A128A110E28EB
:04400E00D520FF3F7B
:00000001FF
