:020000040000FA
:060000000A128A110E280D
:10000800FE00030EF7000408F8000A08F9000A12B7
:100018008A11A5280A128A1111288313B430FD0009
:100028000230FE002F30FF00A03084000A128A112F
:1000380047220A128A114630FD000130FE00E630E0
:10004800FF00203084000A128A1147220A128A11FE
:10005800D701D801D901DA01DB01DC01DD01DE01BC
:10006800FA01FB01FC01FD0183010A128A114C29E6
:1000780083120313CC01C71F422843284A28C60904
:10008800C709C60A0319C70ACC01CC0AC91F4D28DB
:100098004E285728C809C909C80A0319C90A0130CE
:1000A800CA004A08CC06CD01CE0146084704031908
:1000B8005E285F289628CB01CB0A6D2801300310F3
:1000C800C60DC70DFF3E031D63280130CA004A084C
:1000D800CB07C71F70287128622801300310CD0D87
:1000E800CE0DFF3E031D722847084902031D7E28D6
:1000F80046084802031C8128822889284608C80225
:100108004708031CC903C9024D1401300310C70C6A
:10011800C60CFF3E031D8A280130CB02031D95281B
:10012800962871284C0803199A289B28A028CD09DD
:10013800CE09CD0A0319CE0A4E08C7004D08C600DD
:1001480008008B130B1DA928AA28BD286430831228
:10015800031381007D08F1007C08F0007B08F300A0
:100168007A08F20044300A128A110E210A128A1102
:100178000B110B1CC028C128F22883120313061880
:10018800C628C728CC280130DB000030DC00DA287C
:100198005B035C04031DD128D228DA280130DD076F
:1001A8000318DE0A0030DE07DB01DC018618DD28D3
:1001B800DE28E3280130D9000030DA00F12859039D
:1001C8005A04031DE828E928F128FF30DD07031841
:1001D800DE0AFF30DE07D901DA010B1083120313A0
:1001E8000C1FF728F82804290A128A1156220A1225
:1001F8008A11710883120313D8007008D7000C13F2
:100208008B1779088A0078088400770E8300FE0E21
:100218007E0E0900F60036297008F4007407203EA7
:1002280084000008831203138800013085007608D3
:10023800840002308000840A003080004B29720854
:10024800F4007407203E840000088312031388001A
:10025800023085007608840001308000840A00306E
:1002680080004B297608840083130008F400840A70
:100278000008F5007508003A031943294B2974084A
:10028800013A03191029033A031923294B290800B5
:100298000A128A1185210A128A11831203139F14E4
:1002A8005D088700203083120313D500D50B5A2927
:1002B8000000831203139F145808D0005708CF007A
:1002C8007C30D5005508D1007A30D6005608D200C7
:1002D8000A128A11BE210A128A11831203135E08B8
:1002E8005806031D79295D085706031D7C297D29B9
:1002F8008029023089005429890154290A128A1157
:100308000E280430831603178800890104308316E9
:100318000313850087018801890103308600831251
:100328000313850186018701880189018316031358
:100338000F178F160F120F14543081006430831278
:1003480003138100831603131514951416149614B9
:10035800023083120313C6000030C7000A128A1144
:100368000C220A128A118B170B178B160B118B157F
:100378000B1008000F30831203134F05D300003011
:100388005005D4005108840053088000840A54089A
:1003980080001030C6000030C700F0304F05C8009C
:1003A80000305005C9000A128A113C200A128A112D
:1003B800831203135208840046088000840A470801
:1003C800800008003F340034063400345B340034C5
:1003D8004F340034663400346D3400347D340034D6
:1003E800073400347F340034673400347734003401
:1003F8007C340034393400345E34003479340034C9
:1004080071340034023400340234003401340034CE
:10041800831203131F144608C800C80DC80D1F080F
:100428004806C33948069F00203083120313C800CA
:10043800C80B1C2A0000831203131F083F394038D9
:100448009F00831603139F131F129F120C1783120A
:1004580003130C1308003F340034063400345B34B3
:1004680000344F340034663400346D3400347D3445
:100478000034073400347F340034673400347E0895
:100488008A007F0882000A128A1143220A128A11FE
:100498008000840A04087D0603190034FF0A031942
:1004A800FE0A472A831203131E08F200F30172089A
:1004B800F4007308F5007508F1007408F0000800EE
:04400E00D520FF3F7B
:00000001FF
