:020000040000FA
:060000000A128A110C280F
:10000800FE00030EF6000A08F7000A128A112728D4
:100018000A128A110F2883133430FD000030FE00C5
:100028009C30FF00203084000A128A11B4200A1282
:100038008A11F001F101F201F301F401F5018301E4
:100048000A128A11C3288B130B1D2B282C28312840
:1000580064308312031381000B110B1C34283528DC
:1000680066288312031306183A283B2840280130D3
:10007800F2000030F3004E2872037304031D452874
:1000880046284E280130F4070318F50A0030F50712
:10009800F201F30186185128522857280130F00040
:1000A8000030F100652870037104031D5C285D2889
:1000B8006528FF30F4070318F50AFF30F507F0014B
:1000C800F1010B108B1777088A00760E8300FE0E5D
:1000D8007E0E090004308316031788008901043056
:1000E8008316031385008701880189010330860080
:1000F800831203138501860187018801890183160C
:1001080003130F178F160F120F1454308100643029
:100118008312031381008316031315149514161400
:1001280096148B170B178B160B118B150B100800D9
:100138003F340034063400345B3400344F34003428
:10014800663400346D3400347D34003407340034B0
:100158007F340034673400347E088A007F088200C8
:100168000A128A11B0200A128A118000840A04082F
:100178007D0603190034FF0A0319FE0AB4280A127F
:100188008A116E200A128A117408831203138700D9
:08019800C8280A128A110C2884
:04400E00D520FF3F7B
:00000001FF
