:020000040000FA
:060000000A128A110E280D
:10000800FE00030EF7000408F8000A08F9000A12B7
:100018008A111C290A128A1111288313B430FD0091
:100028000230FE006D30FF00A03084000A128A11F1
:1000380085220A128A114630FD000230FE00243063
:10004800FF00203084000A128A1185220A128A11C0
:10005800D801D901DA01DB01DC01DD01DE01DF01B4
:10006800E001E101FA01FB01FC01FD0183010A1233
:100078008A113E280A128A11C3210A128A11831290
:1000880003139F1483120313600887002030831220
:100098000313D500D50B4E280000831203139F14B9
:1000A8005B08D0005A08CF007C30D5005508D10035
:1000B8007A30D6005608D2000A128A11FC210A1298
:1000C8008A118312031361085B06031D6D286008FB
:1000D8005A06031D70287128AE28D801D9010230AC
:1000E800831203138900C73083120313D5007C28B9
:1000F800D50B7B287F28831203138901C73083120D
:100108000313D5008728D50B86288A280130831247
:100118000313D8070318D90A0030D9075908803AB9
:10012800FF0080307F02031D9B2814305802031CF7
:100138009E289F287328033083120313D7008A3020
:10014800D6005530D500D50BA728D60BA728D70B36
:10015800A7284628890146280A128A110E288312E0
:100168000313CC01C71FB928BA28C128C609C70973
:10017800C60A0319C70ACC01CC0AC91FC428C52856
:10018800CE28C809C909C80A0319C90A0130CA0012
:100198004A08CC06CD01CE01460847040319D528E4
:1001A800D6280D29CB01CB0AE42801300310C60D4F
:1001B800C70DFF3E031DDA280130CA004A08CB07E5
:1001C800C71FE728E828D92801300310CD0DCE0D28
:1001D800FF3E031DE92847084902031DF528460884
:1001E8004802031CF828F92800294608C8024708CD
:1001F800031CC903C9024D1401300310C70CC60CF7
:10020800FF3E031D01290130CB02031D0C290D29D6
:10021800E8284C080319112912291729CD09CE09F4
:10022800CD0A0319CE0A4E08C7004D08C6000800BB
:100238008B130B1D202921293429643083120313C1
:1002480081007D08F1007C08F0007B08F3007A0843
:10025800F20044300A128A1185210A128A110B1100
:100268000B1C3729382969298312031306183D29DD
:100278003E2943290130DE000030DF0051295E03AA
:100288005F04031D4829492951290130E007031853
:10029800E10A0030E107DE01DF01861854295529FB
:1002A8005A290130DC000030DD0068295C035D0458
:1002B800031D5F2960296829FF30E0070318E10A58
:1002C800FF30E107DC01DD010B10831203130C1F63
:1002D8006E296F297B290A128A1194220A128A111F
:1002E800710883120313DB007008DA000C138B17F4
:1002F80079088A0078088400770E8300FE0E7E0E47
:100308000900F600AD297008F4007407203E840047
:1003180000088312031388000130850076088400E2
:1003280002308000840A00308000C2297208F4007C
:100338007407203E840000088312031388000230EB
:1003480085007608840001308000840A003080002F
:10035800C2297608840083130008F400840A000880
:10036800F5007508003A0319BA29C2297408013A38
:1003780003198729033A03199A29C2290800043066
:100388008316031788008901043083160313850038
:1003980087018801890103308600831203138501D0
:1003A8008601870188018901831603130F178F16A9
:1003B8000F120F145430810064308312031381002C
:1003C8008316031315149514161496140230831209
:1003D8000313C6000030C7000A128A114A220A1203
:1003E8008A118B170B178B160B118B150B10080026
:1003F8000F30831203134F05D30000305005D4008B
:100408005108840053088000840A54088000103082
:10041800C6000030C700F0304F05C8000030500556
:10042800C9000A128A11B3200A128A11831203130F
:100438005208840046088000840A470880000800A3
:100448003F340034063400345B3400344F34003415
:10045800663400346D3400347D340034073400349D
:100468007F34003467340034773400347C3400340B
:10047800393400345E340034793400347134003453
:10048800023400340234003401340034831203137C
:100498001F144608C800C80DC80D1F084806C339F0
:1004A80048069F00203083120313C800C80B5A2A3D
:1004B8000000831203131F083F3940389F0083163A
:1004C80003139F131F129F120C17831203130C138D
:1004D80008003F340034063400345B3400344F34B1
:1004E8000034663400346D3400347D34003407340D
:1004F80000347F340034673400347E088A007F0873
:1005080082000A128A1181220A128A118000840A42
:1005180004087D0603190034FF0A0319FE0A852A18
:10052800831203131E08F200F3017208F400730823
:0C053800F5007508F1007408F0000800E0
:04400E00D520FF3F7B
:00000001FF
